S02800004C5546415F50524F4A454354535F5553425F544F5F53455249414C335F365F322E7372656348
S113000088C00000A5C00000A3C00000A1C000007B
S11300109FC000009DC000009BC0000099C000006C
S113002097C0000095C000004BC5000013C6000037
S11300308FC000000C947E088BC0000089C00000B3
S113004087C0000085C0000083C0000081C000009C
S11300507FC00000EBC700007BC0000079C0000037
S113006077C000000C945B0B73C0000071C00000EB
S11300706FC00000D8C000006BC0000069C0000061
S113008067C0000065C0000063C0000061C00000DC
S11300905FC000005DC000000E034D00430020005F
S11300A033002E00300000001403500045005400BB
S11300B0450020004C0054004400410000000403AB
S11300C0090409023E00020100C0320904000001D3
S11300D0020201000524001001042402060524067E
S11300E00001070582030800FF09040100020A0059
S11300F00000070504021400050705830214000527
S11301001201100102000008D0162D200100010286
S1130110DC0111241FBECFEFD0E2DEBFCDBF11E062
S1130120A0E0B1E0E8E7F7E100E00BBF02C0079010
S11301300D92AC31B107D9F724E0ACE1B1E001C0D4
S11301401D92A136B207E1F70E94EE0A0C94BA0B95
S113015057CF292F33272230310559F02330310569
S113016069F021303105F9F482E190E020E031E0DA
S11301701EC08EE390E022EC30E019C09927813054
S1130180910541F08230910541F0892B61F4EEEB49
S1130190F0E005C0E8EAF0E002C0E8E9F0E08491AC
S11301A090E09F0104C080E090E020E030E0FA019C
S11301B03183208308951F93CF93DF93C1E6D2E068
S11301C010E0812F31D0899399931F5F1630C9F7BE
S11301D0DF91CF911F9108958CB1807490E090933A
S11301E074028093730289B1807890E090937602D0
S11301F0809375020895DFDFEFCF87B18F6087B9F1
S1130200ECE7F0E0808180648083EAE7F0E08081BD
S113021085608083808180688083EBE7F0E0808163
S11302208068808308951895883060F098B188506C
S1130230907F892B88B980917C00807F8760809330
S11302407C0006C090917C00907F982B90937C005A
S113025080917A00806480937A0048E080E090E0A6
S113026020917A00206420937A0020917A0026FD60
S1130270FCCF2091780030917900820F931F415078
S113028079F745E0969587954A95E1F7089511B871
S113029014B817B81AB81DB812B815B818B81BB8DE
S11302A01EB8249A089A099A0A9A689A699A709ABE
S11302B03F9A279A3C9A209A229A239A219A259A1D
S11302C0269A6E98769A57985F9A87B1806687B90E
S11302D088B1806688B9559A0B9A6C9A6B9A08957E
S11302E0D6DF9AD08ADF6DD001D005C05D9813980F
S11302F07498739808958CED95E090938900809399
S1130300880090938B0080938A00E0E8F0E080817D
S1130310806A8083E1E8F0E080818261808380E20A
S11303209EE4909387008093860008958093B300A1
S1130330249A6115710549F08FE99FE00197F1F75F
S113034000C0000061507109F4CF24980895109AF8
S113035060E570E088ECEADF60E570E084E6E6DF03
S1130360119A60E570E086E9E1DF60E570E08BE416
S1130370DDDF129A60E570E080E7D8DF60E570E0C9
S113038088E3D4DF109860E570E084E5CFDF60E5B2
S113039070E08AE2CBDF119860E570E08FE3C6DF9E
S11303A060E570E08FE1C2DF129860E570E08FE2F3
S11303B0BDDF60E570E087E1B9DF14BC1092B100E5
S11303C00895EF92FF920F931F93CF93DF9382E0F0
S11303D0F82EF4BC93E0E92EE5BC89EF87BDF092DA
S11303E06E0000EB10E0F801808182648083C1EB31
S11303F0D0E0888186688883AADFF801F082E882E9
S11304008AE08093B300F0927000DF91CF911F9146
S11304100F91FF90EF9008951092CD0087E680939E
S1130420CC00E8ECF0E080818D7F808388E18093CC
S1130430C90086E08093CA000895CF93DF93EC014E
S1130440FC0170968BE0DF011D928A95E9F782E04A
S11304508C83898783E08E8761E0CE01019646D242
S1130460882361F061E0CE01069640D2882331F002
S113047061E0CE010B96DF91CF9138C280E0DF912D
S1130480CF910895CF93C62F2EB32430F1F4FC01FD
S11304904489558966897789452B462B472BA9F0D2
S11304A081818F708093E9008091E80085FF04C00A
S11304B0C093F10080E00AC08091E8008E778093B9
S11304C0E80070D28823A1F301C082E0CF9108959F
S11304D02EB3243031F5FC01448955896689778926
S11304E0452B462B472BE9F081818F708093E900DF
S11304F08091F2009091F300892B89F09091E800AB
S11305008091E8008E778093E80095FD08C04AD278
S1130510811108C08091E8008E778093E80080E024
S1130520089582E008952EB3243089F4FC014489AF
S1130530558966897789452B462B472B41F02181C4
S11305402F702093E9002091E80020FDC1CF089589
S11305502EB3243019F08FEF9FEF0895FC014489E6
S1130560558966897789452B462B472BA1F38681CC
S11305708F708093E9008091E80082FFECCF809136
S1130580F2009091F300892B21F02091F10030E0EA
S113059002C02FEF3FEF8091F2009091F300892B7E
S11305A029F48091E8008B778093E800C9010895CD
S11305B00895CF93DF93EC018091E80083FFA5C0F9
S11305C0888190E02091490430914A042817390722
S11305D009F09BC080914604813261F020F480329E
S11305E009F43EC092C0823209F46BC0833209F42C
S11305F07CC08BC080914504813A09F086C080910B
S1130600E800877F8093E8008091E80080FFFCCFBA
S11306104C895D896E897F894093F100BB27A72FA0
S1130620962F852F8093F100CB01AA27BB278093B7
S1130630F100472F5527662777274093F100888DCF
S11306408093F100898D8093F1008A8D8093F1006D
S11306508091E8008E778093E800DF91CF9183C189
S113066080914504813209F050C08091E800877F71
S11306708093E8008091E80082FD04C08EB381116C
S1130680F9CF43C03091F1002091F1009091F10035
S11306908091F1003C8B2D8B9E8B8F8B8091F10090
S11306A0888F8091F100898F8091F1008A8F8091E9
S11306B0E8008B778093E80056D1CE01DF91CF918B
S11306C0B7C780914504813201F58091E800877FA6
S11306D08093E80048D18091470490914804998B15
S11306E0888BCE01DF91CF9187C7809145048132F9
S11306F061F48091E800877F8093E80034D16091B1
S11307004704CE01DF91CF9153CFDF91CF9108956C
S113071020914B0430914C042617370748F061159B
S1130720710539F42091E8002E772093E80001C088
S1130730B901FC0120E06115710591F18EB38823A4
S1130740E1F18530E1F18091E80083FD3AC08091C8
S1130750E80082FF06C08091E80082FF24C080E0A8
S113076008958091E80080FFE6CF8091F200909197
S1130770F3006115710551F08830910538F4219129
S11307802093F100615071090196F3CF21E008979D
S113079009F020E08091E8008E778093E800CBCFC9
S11307A02111CCCFD8CF8EB3882339F0853039F0DE
S11307B08091E80083FFCFCF04C082E0089583E0F6
S11307C0089581E0089520914B0430914C0426173C
S11307D0370748F06115710539F42091E8002E7748
S11307E02093E80001C0B901FC0120E06115710506
S11307F0A9F18EB3882309F43EC0853009F43DC0C5
S11308008091E80083FD3BC08091E80082FF06C030
S11308108091E80082FF25C080E008958091E8007F
S113082080FFE4CF8091F2009091F300611571058F
S113083059F08830910540F424912093F1003196C9
S1130840615071090196F2CF21E0089709F020E088
S11308508091E8008E778093E800C8CF2111C9CF3A
S1130860D7CF8EB3882339F0853039F08091E800F2
S113087083FFCECF04C082E0089583E0089581E031
S11308800895982F973058F59093E900981739F008
S11308907091EC002091ED005091F00003C0242FE2
S11308A0762F50E021FF19C03091EB003E7F30934A
S11308B0EB003091ED003D7F3093ED003091EB0083
S11308C031603093EB007093EC002093ED00509373
S11308D0F0002091EE0027FF07C09F5FD3CF8F70F9
S11308E08093E90081E0089580E008950F931F93B9
S11308F0CF93DF93062FEC0110E0101771F198816C
S1130900992341F12C81E981FA817B81892F8F70B0
S1130910873010F080E022C0223010F056E001C091
S113092052E028E030E040E02E173F0720F44F5F0C
S1130930220F331FF9CF4295407F452B692F661F45
S11309406627661F90E4799F90011124622B99DF3A
S1130950882301F31F5F2596D0CF81E0DF91CF91EB
S11309601F910F9108958091450487FD05C08091E2
S1130970E80080FF0DC010C08091E80082FD04C033
S11309808EB38111F9CF08958091E8008B7707C069
S11309908EB38111ECCF08958091E8008E77809317
S11309A0E80008958091E4009091E50043E32091EC
S11309B0EC0020FF20C02091E80020FD20C02EB3D1
S11309C0222389F0253089F02091EB0025FD0FC00A
S11309D02091E4003091E5002817390741F3415094
S11309E041F0C901E4CF82E0089583E0089581E0F5
S11309F0089584E008952091E80022FFE0CF80E08C
S1130A0008950F931F93CF93DF934DD054D0C8ED27
S1130A10D0E088818F778883888180688883888103
S1130A208F7D8883E7EDF0E080818068808319BC46
S1130A301EBA10924104109243041092420400EE34
S1130A4010E0F80180818B7F8083888181608883B6
S1130A5042E060E080E015DFE1EEF0E080818E7F2F
S1130A608083E2EEF0E08081816080838081886011
S1130A708083F80180818E7F808388818061888370
S1130A80DF91CF911F910F910895E8EDF0E08081FF
S1130A908F7E8083E7EDF0E080818160808381E058
S1130AA080934404AECFE8EDF0E080818C7F8083B6
S1130AB01092E20008951092DA001092E100089575
S1130AC01F920F920FB60F9211240BB60F922F9311
S1130AD03F934F935F936F937F938F939F93AF93C2
S1130AE0BF93EF93FF938091E10082FF0AC080914E
S1130AF0E20082FF06C08091E1008B7F8093E100D9
S1130B0037D28091DA0080FF1BC08091D80080FF2B
S1130B1017C08091DA008E7F8093DA008091D9002B
S1130B2080FF0BC084E189BD86E189BD09B400FE64
S1130B30FDCF81E08EBB5CD503C019BC1EBA59D56C
S1130B408091E10080FF17C08091E20080FF13C014
S1130B508091E2008E7F8093E2008091E2008061C8
S1130B608093E2008091D80080628093D80019BC01
S1130B7085E08EBBFDD18091E10084FF2EC0809181
S1130B80E20084FF2AC084E189BD86E189BD09B4FD
S1130B9000FEFDCF8091D8008F7D8093D800809196
S1130BA0E1008F7E8093E1008091E2008F7E80934C
S1130BB0E2008091E20081608093E2008091410430
S1130BC0882311F084E007C08091E30087FF02C00E
S1130BD083E001C081E08EBBCBD18091E10083FF33
S1130BE026C08091E20083FF22C08091E100877FCC
S1130BF08093E10082E08EBB109241048091E10079
S1130C008E7F8093E1008091E2008E7F8093E200EA
S1130C108091E20080618093E20042E060E080E045
S1130C2030DE8091F00088608093F000A1D1FF91C4
S1130C30EF91BF91AF919F918F917F916F915F9150
S1130C404F913F912F910F900BBE0F900FBE0F90BD
S1130C501F9018951F920F920FB60F9211240BB686
S1130C600F922F933F934F935F936F937F938F9341
S1130C709F93AF93BF93CF93EF93FF93C091E900FA
S1130C80CF708091EC001092E9008091F000877F92
S1130C908093F00078941DD01092E9008091F000C8
S1130CA088608093F000C093E900FF91EF91CF91A9
S1130CB0BF91AF919F918F917F916F915F914F9170
S1130CC03F912F910F900BBE0F900FBE0F901F906E
S1130CD018951F93CF93DF93CDB7DEB7AA970FB6BE
S1130CE0F894DEBF0FBECDBFE5E4F4E08091F100DF
S1130CF0819324E0ED34F207C9F796D48091E8009B
S1130D0083FF1EC19091450480914604853009F407
S1130D1077C030F4813081F168F0833069F110C11B
S1130D20883009F4E0C0893009F4EFC0863009F056
S1130D3007C187C0903881F0923809F001C18091D1
S1130D4049048F708093E9008091EB0085FB88272C
S1130D5080F91092E90006C0809142049091430406
S1130D60911182609091E800977F9093E8008093BE
S1130D70F1001092F100C2C0292F2D7F09F0E0C0CC
S1130D80992319F0923061F0DBC0909147049130BF
S1130D9009F0D6C0833009F090E0909343042AC050
S1130DA090914704911126C0209149042F7009F4B1
S1130DB0C7C02093E9009091EB0090FF1BC08330E3
S1130DC021F48091EB00806213C08091EB0080617C
S1130DD08093EB0081E090E0022E01C0880F0A941A
S1130DE0EAF78093EA001092EA008091EB008860B1
S1130DF08093EB001092E9008091E800877F81C026
S1130E0091119EC0109147041F778091E300807870
S1130E10812B8093E3008091E800877F8093E80032
S1130E20A2DD8091E80080FFFCCF8091E300806820
S1130E308093E300112311F083E001C082E08EBBB4
S1130E407FC09058923008F07BC080914704909105
S1130E5048048C3D23E0920771F583E08A838AE29B
S1130E6089834FB7F894DE01139620E03EE051E207
S1130E70E32FF0E050935700E49120FF03C0E29584
S1130E80EF703F5FEF708E2F90E0EA3010F0C7965E
S1130E9001C0C0968D939D932F5F243149F74FBFB6
S1130EA08091E800877F8093E8006AE270E0CE01D9
S1130EB001962EDC12C0AE014F5F5F4F6091490472
S1130EC048D9009709F43CC02091E800277F20937B
S1130ED0E800BC0189819A8176DC8091E8008B77F7
S1130EE08093E8002DC0903859F58091E800877F01
S1130EF08093E800809141048093F1008091E800A0
S1130F008E778093E8002FDD1BC0911119C090915A
S1130F1047049230A8F48091E800877F8093E8002A
S1130F209093410420DD80914104811104C080919B
S1130F30E30087FF02C084E001C081E08EBB70D370
S1130F408091E80083FF0AC08091E800877F809346
S1130F50E8008091EB0080628093EB00AA960FB6C4
S1130F60F894DEBF0FBECDBFDF91CF911F910895DE
S1130F700895CF938EB38823A9F08091E9008F70F0
S1130F809091EC0090FF02C090E801C090E0C92F5E
S1130F90C82B1092E9008091E80083FD9ADECF709F
S1130FA0C093E900CF910895FC01A081B1816C93B5
S1130FB08081918101969183808326813781821774
S1130FC0930721F484819581918380832FB7F894CA
S1130FD0828593850196938782872FBF0895FC01AC
S1130FE0A281B3818D91B383A28326813781A21715
S1130FF0B30721F424813581338322839FB7F89486
S11310002285338521503109338722879FBF089574
S1131010FC018FB7F894428553858FBF81E020850A
S113102031854217530709F080E008951F920F920B
S11310300FB60F9211240BB60F922F933F934F9339
S11310405F936F937F938F939F93AF93BF93EF932C
S1131050FF9380913E0290913F02A0914002B09193
S113106041020196A11DB11D80933E0290933F025F
S1131070A0934002B093410280913D028130A9F4D3
S113108060913E0270913F02809140029091410232
S113109028E230E040E050E04BD3672B682B692B0B
S11310A0D1F470988EB192E014C060913E027091B8
S11310B03F02809140029091410224EF31E040E0F0
S11310C050E036D3672B682B692B29F471988EB1C5
S11310D091E089278EB9FF91EF91BF91AF919F91D4
S11310E08F917F916F915F914F913F912F910F90CD
S11310F00BBE0F900FBE0F901F9018951F920F926A
S11311000FB60F9211248F939F93809136028F5FB5
S1131110809336028F3F49F58091390290913C02C9
S1131120891306C0882321F0479A1092390201C01E
S113113047988091380290913B02891306C0882316
S113114021F02F9A1092380201C02F988091370213
S113115090913A02891306C0882321F0449A109290
S1131160370201C04498109236028091390290915E
S11311703C02891302C0479803C08F5F80933902F1
S11311808091380290913B02891302C02F9803C0CA
S11311908F5F809338028091370290913A028913CD
S11311A002C0449803C08F5F809337029F918F9150
S11311B00F900FBE0F901F90189584B7877F84BF40
S11311C088E10FB6F89480936000109260000FBE1F
S11311D080E88093610090E00FB6F89480936100FA
S11311E0909361000FBE7CD850DCEAE2F2E02FB7A6
S11311F0F8948AEA91E09183808393838283958330
S113120084838AE292E09783868380E890E09187E2
S11312108087138612862FBFEEE9F1E02FB7F8948A
S11312208EE191E091838083938382839583848389
S11312308EE991E09783868380E890E091878087A8
S1131240138612862FBF78940895CF93DF938AE292
S113125092E0DEDE8111FBCF80E091E079D9EC01F0
S113126097FD04C0682F8AE292E09EDED7FFEFCF9D
S1131270DF91CF9108951F93CF93DF932FB7F89405
S11312808091A8019091A9012FBF009711F120919D
S113129001012F702093E9002091E80020FF19C07C
S11312A08431910510F083E190E0182FC0E0D0E084
S11312B01C1779F0E091A001F091A101608180E018
S11312C091E0E0D82196811104C08EE991E087DE97
S11312D0EFCFDF91CF911F910895CF93DF931F92AA
S11312E0CDB7DEB7682F8EB3843071F48EE991E008
S11312F069838EDE6981811107C08EE991E054DE35
S11313000F90DF91CF91B7CF0F90DF91CF910895D8
S11313101092420280914202843160F4E0914202D0
S1131320F0E0E35BFB4F1082809142028F5F809379
S11313304202F0CF1092420208951F93CF93DF939D
S11313403FB7F89420913402909135023FBFC22FE9
S1131350D92F8823E9F011E02CC08AE292E03FDE25
S11313608D30B9F1E091420291E09E0F90934202D8
S1131370F0E0E35BFB4F8083E0914202F0E0E35B4B
S1131380FB4F1082809142028B3008F0C1DF21971D
S1131390209719F710C08AE292E021DE90911D0196
S11313A091110BC087FF04C080934D0410931D015D
S11313B02197209781F780E00DC09130C9F787FD10
S11313C005C080934E0410921D0103C010921D01AC
S11313D0EFCF81E0DF91CF911F91089581E0ADDFE0
S11313E0813009F096C020914D0480914D043091D4
S11313F04E04837040E8849FC0011124832B2695FA
S1131400269526952F70283009F457C058F42530B6
S1131410F1F118F42430C1F07BC02630D9F1273023
S1131420E1F176C02B3009F462C038F4293009F4B4
S113143055C02A3009F455C06BC02C3009F45DC086
S11314402D3009F460C064C0843B910541F08F3FA6
S1131450910541F0009749F4749A13980AC074985E
S1131460739A07C07498739853C08F3F910509F419
S11314704FC04BE0489F9001499F300D1124C90192
S11314808C509E4F909389008093880041C0809334
S11314903C023EC080933B023BC0843B910541F03B
S11314A08F3F910539F0892B99F55D98139A30C0D7
S11314B05D9A01C05D9813982BC08F3F910541F14F
S11314C04BE0489F9001499F300D1124C9018C5075
S11314D09E4F90938B0080938A001AC080933A02A7
S11314E017C0892B11F0289A13C0289811C0892B92
S11314F011F02A9A0DC02A980BC0892B11F02B9A4F
S113150007C02B9805C0892B11F0299A01C029988E
S1131510FFCE0895C0903E02D0903F02E09040027A
S1131520F090410280E091E00E94930222DD8091DC
S11315303E0290913F02A0914002B09141028C1969
S11315409D09AE09BF090597A105B10558F3C090DF
S11315503E02D0903F02E0904002F0904102809120
S11315603D028130F9F60E94FB006FDE37DFC1E6F1
S1131570D2E0B12C8E012B2D220F220F220F2068D6
S113158089919991880F892F881F990B9195822BA6
S1131590A4DEF80180818F77A0DEB394F6E0BF1259
S11315A0E9CF8091730290917402892B21F087EB2B
S11315B094DE8FE703C080EB90DE80E08EDE8091C6
S11315C0750290917602892B21F088EB86DE8FE7F5
S11315D003C088EB82DE80E080DEA4CFEEDD1092D3
S11315E03E0210923F02109240021092410292DF9A
S11315F0089510923D020895FC01808981709091B4
S11316001C01911106C0882341F091E090933D02A2
S113161004C0811102C010923D0280931C01089500
S113162080E091E00C941D0280E091E00C94D902DA
S1131630CF93FC01818D813031F0823011F0C0E014
S113164003C0C0E201C0C0E3808D823009F4C860E9
S1131650828D873031F0883031F0863029F4C260D1
S113166003C0C46001C0C6605B9A1092C9001092A6
S1131670C8001092CA002489358946895789CA014D
S1131680B901969587957795679560587B47814E04
S11316909F4F4ED0215031093093CD002093CC0080
S11316A0C093CA0082E08093C80088E98093C9008F
S11316B05B98CF9108951F920F920FB60F92112449
S11316C00BB60F922F933F934F935F936F937F9338
S11316D08F939F93AF93BF93EF93FF93CF93DF9336
S11316E01F92CDB7DEB76091CE008EB3843051F433
S11316F08EE991E069838CDC6981811103C08EE9F4
S113170091E052DC0F90DF91CF91FF91EF91BF9167
S1131710AF919F918F917F916F915F914F913F9185
S11317202F910F900BBE0F900FBE0F901F90189526
S1131730A1E21A2EAA1BBB1BFD010DC0AA1FBB1FD1
S1131740EE1FFF1FA217B307E407F50720F0A21B43
S1131750B30BE40BF50B661F771F881F991F1A94B0
S113176069F760957095809590959B01AC01BD01DA
S10B1770CF010895F894FFCFA6
S11317780083140000010414000001820800000121
S10F178800000000000000000000000051
S9030000FC
