S02800004C5546415F50524F4A454354535F5553425F544F5F53455249414C335F365F322E7372656348
S113000088C00000A5C00000A3C00000A1C000007B
S11300109FC000009DC000000C94510999C00000CD
S113002097C0000095C000001EC50000E6C5000092
S11300308FC000008DC000008BC0000089C000008C
S113004087C0000085C0000083C0000081C000009C
S11300507FC00000BEC700007BC0000079C0000064
S113006077C000000C94B90B73C0000071C000008D
S11300706FC000000EC100006BC0000069C000002A
S113008067C0000065C0000063C0000061C00000DC
S11300905FC000005DC000000E034D00430020005F
S11300A033002E00300000001403500045005400BB
S11300B0450020004C0054004400410000000403AB
S11300C0090409023E00020100C0320904000001D3
S11300D0020201000524001001042402060524067E
S11300E00001070582030800FF09040100020A0059
S11300F00000070504021400050705830214000527
S11301001201100102000008D0162D200100010286
S1130110DC0111241FBECFEFD0E2DEBFCDBF11E062
S1130120A0E0B1E0E6E4F8E100E00BBF02C0079014
S11301300D92A632B107D9F724E0A6E2B1E001C0DE
S11301401D92AE36B207E1F70E94340B0C94210CD9
S113015057CF292F33272230310559F02330310569
S113016069F021303105F9F482E190E020E031E0DA
S11301701EC08EE390E022EC30E019C09927813054
S1130180910541F08230910541F0892B61F4EEEB49
S1130190F0E005C0E8EAF0E002C0E8E9F0E08491AC
S11301A090E09F0104C080E090E020E030E0FA019C
S11301B0318320830895823031F0833031F08130EF
S11301C029F410980895119808951298089511B873
S11301D014B817B81AB81DB812B815B818B81BB89F
S11301E01EB881B1876081B98DB183608DB9709A71
S11301F084B18F6084B984B1806684B92E9A5F9A81
S113020087B1806687B988B1806688B9559A0B9A98
S11302106C9A6B9A08951F93CF93DF93C5E6D2E04F
S113022010E0812F37D0899399931F5F1630C9F757
S1130230DF91CF911F9108958CB1807490E09093D9
S113024078028093770289B1807890E090937A0263
S1130250809379020895DFDFEFCF87B18F6087B98C
S1130260ECE7F0E0808180648083EAE7F0E080815D
S113027085608083808180688083089583B7817FCF
S1130280826083BFEAE7F0E08081886080837894AD
S113029008951895883060F098B18850907F892B24
S11302A088B980917C00807F876080937C0006C041
S11302B090917C00907F982B90937C0080917A00A1
S11302C0806480937A002091780030917900809145
S11302D07800909179004091780050917900609174
S11302E0780070917900860F971F840F951F820FF5
S11302F0931F969587959695879508958DB18B7DD7
S11303008DB98EB184628EB9089561DFF7DF4ED066
S1130310A4DF25D004D008C049D09FDF20C05D9859
S113032013987498739808958CED95E090938900D0
S11303308093880090938B0080938A00E0E8F0E03B
S11303408081806A8083E1E8F0E08081826180833B
S113035080E29EE49093870080938600089582E073
S113036084BD93E095BD99EF97BD80936E00E0EB5B
S1130370F0E0808182608083808180648083E1EB0F
S1130380F0E080818660808308958093B300249A8E
S11303906115710549F08FE99FE00197F1F700C0FD
S11303A0000061507109F4CF249808951092CD0093
S11303B087E68093CC00E8ECF0E080818D7F808339
S11303C088E18093C90086E08093CA0008959091E3
S11303D0C80095FFFCCF8093CE000895CF93DF93A0
S11303E0EC01FC0170968BE0DF011D928A95E9F720
S11303F082E08C83898783E08E8761E0CE01019659
S113040048D2882361F061E0CE01069642D2882367
S113041031F061E0CE010B96DF91CF913AC280E0DA
S1130420DF91CF910895CF93C62F2EB32430F1F4EA
S1130430FC014489558966897789452B462B472BCE
S1130440A9F081818F708093E9008091E80085FF95
S113045004C0C093F10080E00AC08091E8008E7768
S11304608093E80072D28823A1F301C082E0CF9187
S113047008952EB3243031F5FC01448955896689E9
S11304807789452B462B472BE9F081818F70809328
S1130490E9008091F2009091F300892B89F090910A
S11304A0E8008091E8008E778093E80095FD08C00D
S11304B04CD2811108C08091E8008E778093E800C7
S11304C080E0089582E008952EB3243089F4FC017D
S11304D04489558966897789452B462B472B41F0FA
S11304E021812F702093E9002091E80020FDC1CFE5
S11304F008952EB3243019F08FEF9FEF0895FC0177
S11305004489558966897789452B462B472BA1F366
S113051086818F708093E9008091E80082FFECCFA0
S11305208091F2009091F300892B21F02091F10049
S113053030E002C02FEF3FEF8091F2009091F30082
S1130540892B29F48091E8008B778093E800C90116
S113055008950895CF93DF93EC018091E80083FF21
S1130560A7C0888190E020914D0430914E04281753
S1130570390709F09DC080914A04813261F020F46A
S1130580803209F43EC094C0823209F46CC08332D4
S113059009F47EC08DC080914904813A09F088C075
S11305A08091E800877F8093E8008091E80080FFD5
S11305B0FCCF4C895D896E897F894093F100BB270C
S11305C0A72F962F852F8093F100CB01AA27BB2755
S11305D08093F100472F5527662777274093F10032
S11305E0888D8093F100898D8093F1008A8D8093AA
S11305F0F1008091E8008E778093E800DF91CF913D
S113060085C180914904813209F052C08091E8008B
S1130610877F8093E8008091E80082FD04C08EB358
S11306208111F9CF45C03091F1002091F1009091F2
S1130630F1008091F1003C8B2D8B9E8B8F8B8091F0
S1130640F100888F8091F100898F8091F1008A8F69
S11306508091E8008B778093E80058D1CE01DF9138
S1130660CF910C94760B80914904813209F58091E5
S1130670E800877F8093E80049D180914B049091F2
S11306804C04998B888BCE01DF91CF910C945A0B3B
S113069080914904813261F48091E800877F8093DE
S11306A0E80034D160914B04CE01DF91CF9151CF5A
S11306B0DF91CF91089520914F0430915004261773
S11306C0370748F06115710539F42091E8002E7759
S11306D02093E80001C0B901FC0120E06115710517
S11306E091F18EB38823E1F18530E1F18091E80046
S11306F083FD3AC08091E80082FF06C08091E80043
S113070082FF24C080E008958091E80080FFE6CF56
S11307108091F2009091F3006115710551F08830D9
S1130720910538F421912093F100615071090196EB
S1130730F3CF21E0089709F020E08091E8008E775C
S11307408093E800CBCF2111CCCFD8CF8EB38823B0
S113075039F0853039F08091E80083FFCFCF04C0B1
S113076082E0089583E0089581E0089520914F0484
S1130770309150042617370748F06115710539F494
S11307802091E8002E772093E80001C0B901FC0114
S113079020E061157105A9F18EB3882309F43EC0E8
S11307A0853009F43DC08091E80083FD3BC0809111
S11307B0E80082FF06C08091E80082FF25C080E047
S11307C008958091E80080FFE4CF8091F200909139
S11307D0F3006115710559F08830910540F42491B6
S11307E02093F1003196615071090196F2CF21E016
S11307F0089709F020E08091E8008E778093E80064
S1130800C8CF2111C9CFD7CF8EB3882339F0853013
S113081039F08091E80083FFCECF04C082E00895D0
S113082083E0089581E00895982F973058F59093C8
S1130830E900981739F07091EC002091ED00509187
S1130840F00003C0242F762F50E021FF19C030910F
S1130850EB003E7F3093EB003091ED003D7F309311
S1130860ED003091EB0031603093EB007093EC00BD
S11308702093ED005093F0002091EE0027FF07C075
S11308809F5FD3CF8F708093E90081E0089580E06B
S113089008950F931F93CF93DF93062FEC0110E07D
S11308A0101771F19881992341F12C81E981FA8122
S11308B07B81892F8F70873010F080E022C0223036
S11308C010F056E001C052E028E030E040E02E177E
S11308D03F0720F44F5F220F331FF9CF4295407F2B
S11308E0452B692F661F6627661F90E4799F900148
S11308F01124622B99DF882301F31F5F2596D0CF43
S113090081E0DF91CF911F910F9108958091490467
S113091087FD05C08091E80080FF0DC010C0809164
S1130920E80082FD04C08EB38111F9CF089580914F
S1130930E8008B7707C08EB38111ECCF08958091C6
S1130940E8008E778093E80008958091E400909108
S1130950E50043E32091EC0020FF20C02091E80053
S113096020FD20C02EB3222389F0253089F0209168
S1130970EB0025FD0FC02091E4003091E50028171D
S1130980390741F3415041F0C901E4CF82E00895B1
S113099083E0089581E0089584E008952091E800BB
S11309A022FFE0CF80E008950F931F93CF93DF934E
S11309B04DD054D0C8EDD0E088818F77888388816A
S11309C08068888388818F7D8883E7EDF0E080816B
S11309D08068808319BC1EBA1092450410924704A3
S11309E01092460400EE10E0F80180818B7F808332
S11309F088818160888342E060E080E015DFE1EE79
S1130A00F0E080818E7F8083E2EEF0E0808181607F
S1130A108083808188608083F80180818E7F8083D9
S1130A20888180618883DF91CF911F910F91089510
S1130A30E8EDF0E080818F7E8083E7EDF0E0808157
S1130A408160808381E080934804AECFE8EDF0E0DC
S1130A5080818C7F80831092E20008951092DA00E6
S1130A601092E10008951F920F920FB60F92112475
S1130A700BB60F922F933F934F935F936F937F9394
S1130A808F939F93AF93BF93EF93FF938091E10074
S1130A9082FF0AC08091E20082FF06C08091E100DB
S1130AA08B7F8093E10037D28091DA0080FF1BC0F6
S1130AB08091D80080FF17C08091DA008E7F8093E8
S1130AC0DA008091D90080FF0BC084E189BD86E102
S1130AD089BD09B400FEFDCF81E08EBBE7D503C01C
S1130AE019BC1EBAE4D58091E10080FF17C0809143
S1130AF0E20080FF13C08091E2008E7F8093E200C9
S1130B008091E20080618093E2008091D80080624D
S1130B108093D80019BC85E08EBBFDD18091E100A3
S1130B2084FF2EC08091E20084FF2AC084E189BD45
S1130B3086E189BD09B400FEFDCF8091D8008F7D88
S1130B408093D8008091E1008F7E8093E1008091B2
S1130B50E2008F7E8093E2008091E20081608093C6
S1130B60E20080914504882311F084E007C080915D
S1130B70E30087FF02C083E001C081E08EBBCBD1DC
S1130B808091E10083FF26C08091E20083FF22C0B0
S1130B908091E100877F8093E10082E08EBB109218
S1130BA045048091E1008E7F8093E1008091E20012
S1130BB08E7F8093E2008091E20080618093E20066
S1130BC042E060E080E030DE8091F0008860809355
S1130BD0F000A1D1FF91EF91BF91AF919F918F91BF
S1130BE07F916F915F914F913F912F910F900BBE29
S1130BF00F900FBE0F901F9018951F920F920FB673
S1130C000F9211240BB60F922F933F934F935F9340
S1130C106F937F938F939F93AF93BF93CF93EF93F0
S1130C20FF93C091E900CF708091EC001092E9002D
S1130C308091F000877F8093F00078941DD010920B
S1130C40E9008091F00088608093F000C093E9008F
S1130C50FF91EF91CF91BF91AF919F918F917F9130
S1130C606F915F914F913F912F910F900BBE0F9019
S1130C700FBE0F901F9018951F93CF93DF93CDB79E
S1130C80DEB7AA970FB6F894DEBF0FBECDBFE9E476
S1130C90F4E08091F100819324E0E135F207C9F793
S1130CA021D58091E80083FF1EC190914904809171
S1130CB04A04853009F477C030F4813081F168F05A
S1130CC0833069F110C1883009F4E0C0893009F437
S1130CD0EFC0863009F007C187C0903881F09238A0
S1130CE009F001C180914D048F708093E9008091D7
S1130CF0EB0085FB882780F91092E90006C08091FB
S1130D00460490914704911182609091E800977F86
S1130D109093E8008093F1001092F100C2C0292F53
S1130D202D7F09F0E0C0992319F0923061F0DBC007
S1130D3090914B04913009F0D6C0833009F090E0D3
S1130D40909347042AC090914B04911126C020919E
S1130D504D042F7009F4C7C02093E9009091EB0073
S1130D6090FF1BC0833021F48091EB00806213C09C
S1130D708091EB0080618093EB0081E090E0022E93
S1130D8001C0880F0A94EAF78093EA001092EA00FF
S1130D908091EB0088608093EB001092E9008091D1
S1130DA0E800877F81C091119EC010914B041F778A
S1130DB08091E3008078812B8093E3008091E800A8
S1130DC0877F8093E800A2DD8091E80080FFFCCF5C
S1130DD08091E30080688093E300112311F083E0A5
S1130DE001C082E08EBB7FC09058923008F07BC077
S1130DF080914B0490914C048C3D23E0920771F553
S1130E0083E08A838AE289834FB7F894DE011396DC
S1130E1020E03EE051E2E32FF0E050935700E491EC
S1130E2020FF03C0E295EF703F5FEF708E2F90E0DC
S1130E30EA3010F0C79601C0C0968D939D932F5F42
S1130E40243149F74FBF8091E800877F8093E80001
S1130E506AE270E0CE0101962EDC12C0AE014F5F53
S1130E605F4F60914D0475D9009709F43CC02091FF
S1130E70E800277F2093E800BC0189819A8176DC11
S1130E808091E8008B778093E8002DC0903859F565
S1130E908091E800877F8093E800809145048093E7
S1130EA0F1008091E8008E778093E8002FDD1BC06D
S1130EB0911119C090914B049230A8F48091E800EC
S1130EC0877F8093E8009093450420DD809145045A
S1130ED0811104C08091E30087FF02C084E001C057
S1130EE081E08EBBFBD38091E80083FF0AC0809130
S1130EF0E800877F8093E8008091EB008062809314
S1130F00EB00AA960FB6F894DEBF0FBECDBFDF91FB
S1130F10CF911F9108950895CF938EB38823A9F09C
S1130F208091E9008F709091EC0090FF02C090E8EE
S1130F3001C090E0C92FC82B1092E9008091E8000D
S1130F4083FD9ADECF70C093E900CF910895FC0130
S1130F50A081B1816C93808191810196918380837A
S1130F60268137818217930721F4848195819183A7
S1130F7080832FB7F894828593850196938782871F
S1130F802FBF0895FC01A281B3818D91B383A28305
S1130F9026813781A217B30721F424813581338355
S1130FA022839FB7F89422853385215031093387F2
S1130FB022879FBF0895FC018FB7F894428553851B
S1130FC08FBF81E0208531854217530709F080E007
S1130FD008951F920F920FB60F9211240BB60F9221
S1130FE02F933F934F935F936F937F938F939F932D
S1130FF0AF93BF93CF93DF93EF93FF93809141021D
S113100090914202A0914302B09144020196A11D25
S1131010B11D8093410290934202A0934302B09386
S11310204402C0912701C13021F5D091460260915C
S11310304102709142028091430290914402D13066
S113104061F428E230E040E050E0D0D3672B682B15
S1131050692B21F582B18D2720C026E930E040E0DC
S113106050E0C4D3672B682B692BC1F482B18C2761
S113107014C06091410270914202809143029091A8
S1131080440224EF31E040E050E0B0D3672B682BFA
S1131090692B21F482B191E0892782B9FF91EF9104
S11310A0DF91CF91BF91AF919F918F917F916F917C
S11310B05F914F913F912F910F900BBE0F900FBEF8
S11310C00F901F90189581E076D882E074D883E061
S11310D072C8ED9A089584B7877F84BF88E10FB6FC
S11310E0F89480936000109260000FBE90E080E856
S11310F00FB6F89480936100909361000FBE05D9F8
S113110097DCE5E3F2E02FB7F89485EB91E0918367
S11311108083938382839583848385E392E097839A
S1131120868380E890E091878087138612862FBF9C
S1131130E9EAF1E02FB7F89489E291E091838083A2
S1131140938382839583848389EA91E0978386835A
S113115080E890E091878087138612862FBFB9DFDD
S113116078940895CF93DF9385E392E024DF81118F
S1131170FBCF80E091E0BDD9EC0197FD04C0682F5E
S113118085E392E0E4DED7FFEFCFDF91CF910895BE
S11311901F93CF93DF932FB7F8948091B30190916D
S11311A0B4012FBF009711F1209101012F702093FA
S11311B0E9002091E80020FF19C08431910510F066
S11311C083E190E0182FC0E0D0E01C1779F0E091A3
S11311D0AB01F091AC01608180E091E024D92196CB
S11311E0811104C089EA91E0CDDEEFCFDF91CF9188
S11311F01F9108950F931F93CF93DF938C018EB3A8
S11312008430D1F489EA91E0D6DE811115C0E80179
S11312106991662321F089EA91E099DEF9CF6DE0C6
S113122089EA91E094DE6AE089EA91E090DEDF9158
S1131230CF911F910F91ACCFDF91CF911F910F915F
S11312400895CF93DF931F92CDB7DEB7682F8EB387
S1131250843071F489EA91E06983ADDE698181119A
S113126007C089EA91E073DE0F90DF91CF9190CFB0
S11312700F90DF91CF91089510924502809145021D
S1131280843160F4E0914502F0E0E75AFB4F1082AC
S1131290809145028F5F80934502F0CF1092450202
S11312A008951F920F920FB60F9211240BB60F924E
S11312B02F933F934F935F936F937F938F939F935A
S11312C0AF93BF93EF93FF9362E370E08FEE5DD82B
S11312D0D3DF22D880914602811106C081E0809339
S11312E04602719A709804C0109246027198709ADE
S11312F0659BFECF8FE39FE10197F1F700C00000EB
S1131300659BFECFFF91EF91BF91AF919F918F911C
S11313107F916F915F914F913F912F910F900BBEF1
S11313200F900FBE0F901F9018951F93CF93DF93CC
S11313303FB7F89420913F02909140023FBFC22FE3
S1131340D92F8823E9F011E02CC085E392E01ADE5E
S11313508D30B9F1E091450291E09E0F90934502E2
S1131360F0E0E75AFB4F8083E0914502F0E0E75A52
S1131370FB4F1082809145028B3008F07DDF21976E
S1131380209719F710C085E392E0FCDD90912801C5
S113139091110BC087FF04C0809359041093280156
S11313A02197209781F780E00DC09130C9F787FD20
S11313B005C080935A041092280103C0109228019A
S11313C0EFCF81E0DF91CF911F91089580E0ADDFF1
S11313D0813059F46BE171E089E594E029D2892BDD
S11313E019F480E291E006DF47CF0895CF92DF92AF
S11313F0EF92FF92C0904102D0904202E0904302EB
S1131400F090440280914602811123C080E091E073
S11314105BD882DD8091410290914202A091430207
S1131420B09144028C199D09AE09BF094497A105E6
S1131430B10540F380912701813021F7C09041022A
S1131440D0904202E0904302F09044028BDEBEDF73
S1131450D9CFFF90EF90DF90CF900895CF93DF9393
S113146081E063DF813009F086C080915904C09126
S1131470590490915A04C37020E8C29FE0011124DA
S1131480C92B8695869586958F708A3009F459C044
S113149048F48730B1F1883009F443C0843009F04E
S11314A067C009C08C3009F458C008F450C08D30AE
S11314B009F459C05DC0C43BD10539F0CF3FD10513
S11314C039F0209739F4749A04C07498739A02C05E
S11314D0749873988D2F0E94E7018C2F0E94E70166
S11314E0CF3FD10509F444C02BE02C9FC0012D9FB0
S11314F0900D11248C509E4F909389008093880006
S113150037C0C43BD10541F0CF3FD10539F0CD2BD5
S113151079F55D98139A2CC05D9A01C05D98139873
S113152027C0CF3FD10521F12BE02C9FC0012D9F77
S1131530900D11248C509E4F90938B0080938A00C1
S113154017C0CD2B11F0289A13C0289811C0CD2BA9
S113155011F02A9A0DC02A980BC0CD2B11F02B9AAA
S113156007C02B9805C0CD2B11F0299A01C02998EA
S1131570DF91CF9181CEDF91CF910895CF92DF9209
S1131580EF92FF921F93CF93DF93C0904102D090CC
S11315904202E0904302F09044028091460281307E
S11315A009F05AC080E091E00E946402B5DC8091A9
S11315B0410290914202A0914302B09144028C19DD
S11315C09D09AE09BF090597A105B10530F38091C6
S11315D02701813011F7C0904102D0904202E0907F
S11315E04302F09044020E942B01BCDD37DFC7E4C4
S11315F0D2E010E029913991812F880F880F880F4C
S11316008068220F232F221F330B31952770822BE2
S113161018DE8C8D8F7715DE1F5F163059F7809199
S1131620770290917802892B21F087EB0ADE8FE70D
S113163003C080EB06DE80E004DE809179029091A5
S11316407A02892B21F08FEBFCDD8FE703C088EB56
S1131650F8DD80E0F6DDA1CFDF91CF911F91FF90FF
S1131660EF90DF90CF9008951092410210924202C1
S1131670109243021092440280E8809361008CE14E
S11316809CE0909353048093520490935804809365
S11316905704709A20DD0E943E0180914602811118
S11316A002C0A4DE01C06ADF0EDDF7CF08951092F8
S11316B027010895FC018089817090912601911180
S11316C006C0882341F091E09093270104C0811162
S11316D002C01092270180932601089580E091E0D2
S11316E00C94EE0180E091E00C94AA02CF93FC01EB
S11316F0818D813031F0823011F0C0E003C0C0E24E
S113170001C0C0E3808D823009F4C860828D8730C7
S113171031F0883031F0863029F4C26003C0C460EF
S113172001C0C6605B9A1092C9001092C800109262
S1131730CA002489358946895789CA01B901969511
S113174087957795679560587B47814E9F4F4ED01C
S1131750215031093093CD002093CC00C093CA00AE
S113176082E08093C80088E98093C9005B98CF9198
S113177008951F920F920FB60F9211240BB60F9279
S11317802F933F934F935F936F937F938F939F9385
S1131790AF93BF93EF93FF93CF93DF931F92CDB794
S11317A0DEB76091CE008EB3843051F489EA91E0C3
S11317B0698301DC6981811103C089EA91E0C7DB97
S11317C00F90DF91CF91FF91EF91BF91AF919F91D6
S11317D08F917F916F915F914F913F912F910F90D6
S11317E00BBE0F900FBE0F901F901895A1E21A2EFA
S11317F0AA1BBB1BFD010DC0AA1FBB1FEE1FFF1FB1
S1131800A217B307E407F50720F0A21BB30BE40B00
S1131810F50B661F771F881F991F1A9469F7609547
S11318207095809590959B01AC01BD01CF01089501
S1131830FB01DC018D91019080190110D9F3990B02
S10918400895F894FFCFA7
S11318460083140000010414000001820800000152
S1131856000000000000000000000070696E6700D0
S1091866706F6E670000C4
S9030000FC
