S02800004C5546415F50524F4A454354535F5553425F544F5F53455249414C335F365F322E7372656348
S113000088C00000A5C00000A3C00000A1C000007B
S11300109FC000009DC000000C94A20A99C000007B
S113002097C0000095C00000D6C5000097C6000028
S11300308FC000008DC000008BC0000089C000008C
S113004087C0000085C0000083C0000081C000009C
S11300507FC000000C9471087BC0000079C00000D0
S113006077C000000C942D0D73C0000071C0000017
S11300706FC00000F6C000006BC0000069C0000043
S113008067C0000065C0000063C0000061C00000DC
S11300905FC000005DC000000E034D00430020005F
S11300A033002E00300000001403500045005400BB
S11300B0450020004C0054004400410000000403AB
S11300C0090409023E00020100C0320904000001D3
S11300D0020201000524001001042402060524067E
S11300E00001070582030800FF09040100020A0059
S11300F00000070504021400050705830214000527
S11301001201100102000008D0162D200100010286
S1130110DC0111241FBECFEFD0E2DEBFCDBF11E062
S1130120A0E0B1E0E0E5FBE100E00BBF02C0079016
S11301300D92A632B107D9F724E0A6E2B1E001C0DE
S11301401D92A736B207E1F70E94850C0C94A60D08
S113015057CF292F33272230310559F02330310569
S113016069F02130310529F180E090E020E030E0B1
S113017029C08EE390E022EC30E024C0992781303E
S1130180910559F08230910571F0892BB9F4EEEBA9
S1130190F0E0849190E09F0115C0E8EAF0E08491DA
S11301A090E09F010FC0E8E9F0E0849190E09F01A6
S11301B009C082E190E020E031E004C080E090E0FA
S11301C020E030E0FA01318320830895823031F059
S11301D0833031F0813029F41098089511980895EE
S11301E0129808951F93CF93DF93C6E6D2E010E0F0
S11301F0812F38D0899399931F5F1630C9F7DF9107
S1130200CF911F9108958CB1807490E090937902FE
S11302108093780289B1807890E090937B028093F8
S11302207A020895DFDFEFCF089587B18F6087B931
S1130230ECE7F0E0808180648083EAE7F0E080818D
S113024085608083808180688083089583B7817FFF
S1130250826083BFEAE7F0E08081886080837894DD
S113026008951895883060F098B18850907F892B54
S113027088B9ECE7F0E08081807F8760808306C0E6
S1130280ECE7F0E09081907F892B8083EAE7F0E04F
S113029080818064808344E080E090E0E8E7F0E0DF
S11302A023B7216023BF889523B72E7F23BF2081E6
S11302B03181820F931F415099F7969587959695B2
S11302C08795089581B1876081B98DB183608DB9B7
S11302D0109810981198119808958DB18B7D8DB94F
S11302E08EB184628EB90895EDDFF7DF86D09DDF8D
S11302F05BD006D035C0089580D097DF55C00895EF
S11303003D9A579A3C9A3E9A569A549A5F984498C2
S11303105E985C9888E590E09093990080939800AB
S113032090939B0080939A00E0E9F0E080818260E2
S11303308083A1E9B0E08C9188618C938C91816079
S11303408C9380EB90E0909397008093960080814B
S1130350806880838081806280833F9A479A089571
S113036080E89CE0909389008093880090938B00B0
S113037080938A00E0E8F0E0808182608083A1E8D5
S1130380B0E08C9188618C938C9182608C9380E432
S11303909CE99093870080938600808180688083A5
S11303A0808180628083089582E084BD93E095BD5E
S11303B099EF97BD80936E00E0EBF0E0808182605E
S11303C08083808180648083E1EBF0E080818660BB
S11303D0808308958093B300249A6115710559F0C0
S11303E08FE99FE00197F1F700C0000061507109A7
S11303F061157105A9F7249808951092CD0087E638
S11304008093CC00E8ECF0E080818D7F808388E1EC
S11304108093C90086E08093CA000895CF93DF9348
S1130420EC01FC0170968BE0DF011D928A95E9F7DF
S113043082E08C83898783E08E8761E0CE01019618
S1130440AAD2882351F061E0CE010696A4D2882373
S113045021F061E0CE010B969ED2DF91CF910895F9
S1130460CF93C62F2EB32430E9F4FC014489558977
S113047066897789452B462B472BB1F081818F7094
S11304808093E9008091E80085FD08C0E8EEF0E083
S113049080818E778083FED2811107C0C093F100E2
S11304A080E003C082E001C082E0CF9108952EB3C2
S11304B0243021F5FC014489558966897789452BC7
S11304C0462B472BE9F081818F708093E90080915E
S11304D0F2009091F300892BA9F0E8EEF0E080811E
S11304E090819E77908385FD0FC0D4D281110DC079
S11304F0E8EEF0E090819E779083089582E008957D
S113050082E0089580E0089580E008952EB32430B9
S113051089F4FC014489558966897789452B462BE2
S1130520472B41F021812F702093E9002091E800AE
S113053020FDBDCF08952EB3243059F5FC01448924
S1130540558966897789452B462B472B29F1868166
S11305508F708093E9008091E80082FF20C0809131
S1130560F2009091F300892B21F02091F10030E00A
S113057002C02FEF3FEF8091F2009091F300892B9E
S113058089F4E8EEF0E080818B778083822F932FCB
S113059008958FEF9FEF08958FEF9FEF08958FEFEA
S11305A09FEF0895822F932F08950895CF93DF939B
S11305B0EC018091E80083FF96C0888190E020914F
S11305C04E0430914F042817390709F08CC08091EC
S11305D04B04813259F018F48032B9F184C082326C
S11305E009F45FC0833209F470C07DC080914A046D
S11305F0813A09F078C0E8EEF0E08081877F80835B
S1130600808180FFFDCF4C895D896E897F89E1EF10
S1130610F0E04083BB27A72F962F852F8083CB0143
S1130620AA27BB278083472F552766277727408330
S1130630888D8083898D80838A8D8083E8EEF0E0C5
S113064080818E77808304D24EC080914A048132A7
S113065009F049C0E8EEF0E08081877F808304C020
S11306608EB3882309F43FC0808182FFF9CFE1EF84
S1130670F0E030812081908180813C8B2D8B9E8B9A
S11306808F8B8081888F8081898F80818A8FE8EE2B
S1130690F0E080818B778083DBD1CE010E94C80C8F
S11306A022C080914A048132F1F4E8EEF0E08081C6
S11306B0877F8083CDD180914C0490914D04998B98
S11306C0888BCE010E94A30C0EC080914A04813213
S11306D051F4E8EEF0E08081877F8083B9D16091A6
S11306E04C04CE0162DFDF91CF9108950F931F93E5
S11306F0CF93DF932091500430915104261737078C
S113070058F06115710539F4E8EEF0E020812E7798
S113071020839B0101C09B01A0E0E8EEF0E062EFC2
S113072070E0C1EFD0E011E000E034C04EB34423E8
S113073009F443C0453009F442C0408143FD41C03F
S1130740408142FF03C0E8EEF0E032C0408140FF48
S113075021C0DB014D915C912115310599F04830A0
S1130760510580F4A82FB92F8D9188838A2F9B2F50
S1130770215031094F5F5F4F2115310519F0483081
S1130780510591F7A12F4830510509F0A02F408160
S11307904E7740832115310549F6A111C7CFD3CF38
S11307A08EB3882381F0853081F0808183FD0FC072
S11307B0808182FFF5CF80E00BC082E009C083E036
S11307C007C081E005C082E003C083E001C081E08E
S11307D0DF91CF911F910F910895EF92FF921F9394
S11307E0CF93DF932091500430915104261737079B
S11307F058F06115710539F4E8EEF0E020812E77A8
S113080020839B0101C09B01E82FF92F60E0A8EE33
S1130810B0E042EF50E00F2EF1EFEF2EF12CF02D6F
S113082071E010E030C08EB3882309F43FC08530F6
S113083009F43EC08C9183FD3DC08C9182FF03C0BE
S1130840E8EEF0E02EC08C9180FF1DC0EA018881A3
S113085099812115310581F08830910568F46491FE
S1130860E70168833196215031090196211531053C
S113087019F08830910599F7672F089709F0612FCF
S11308808C918E778C932115310569F66111CBCF4C
S1130890D7CF8EB3882381F0853081F0808183FDAA
S11308A00FC0808182FFF5CF80E00BC082E009C0D9
S11308B083E007C081E005C082E003C083E001C09B
S11308C081E0DF91CF911F91FF90EF9008958F9277
S11308D09F92BF92CF92DF92EF92FF920F931F935A
S11308E0CF93DF93873070F126C0592F5F70E801F2
S11308F05883891731F0E901D8805081E401788167
S113090003C05B2DD62E7C2D51FF12C04C914E7F1F
S11309104C9340814D7F40834C9141604C93E9015D
S1130920D8825083E4017883E7015881552344F445
S11309309F5F9730D1F68F708093E90081E01FC0EC
S113094080E01DC0982F9F709093E900982F542F3A
S1130950D62E70E0ABEEB0E0EDEEF0E02CEE30E041
S11309600F2EF0EF8F2E912CF02D0F2EFEEEEF2E8A
S1130970F12CF02D09EE10E0B42EC12CC5CFDF917F
S1130980CF911F910F91FF90EF90DF90CF90BF9088
S11309909F908F900895BF92CF92DF92EF92FF9233
S11309A00F931F93CF93DF93062F662309F441C05F
S11309B0C82FD92F10E0F12C6894DD24D3F8E12C52
S11309C06894BB24B1F80F2EF6E0CF2EF02D588199
S11309D0552351F19C81E981FA817B81852F8F70A8
S11309E0873048F5923010F04C2D01C04B2DE93082
S11309F0F10550F02D2D3E2D9F2D9F5F220F331FAB
S1130A002E173F07D0F301C09F2D9295907F492B5D
S1130A10551F5527551F90E4799F90011124652F88
S1130A20622B55DF882351F01F5F25961013CFCF1B
S1130A3004C081E003C080E001C081E0DF91CF9178
S1130A401F910F91FF90EF90DF90CF90BF9008958A
S1130A5080914A0488231CF0E8EEF0E012C0E8EE2E
S1130A60F0E003C08EB38823A1F0808182FFFACF27
S1130A70E8EEF0E080818B77808308958EB388233D
S1130A8041F0808180FFFACFE8EEF0E080818E773C
S1130A90808308950F931F93CF93DF932091E400F5
S1130AA03091E50063E3ACEEB0E0E8EEF0E00BEE8D
S1130AB010E044EE50E08C9180FD20C023C08EB342
S1130AC0882381F0853081F0E801888185FD0EC09E
S1130AD0EA01888199812817390769F3615041F047
S1130AE09C01E9CF82E012C083E010C081E00EC017
S1130AF084E00CC080E00AC080E008C0808180FFF0
S1130B00DECFF8CF808182FFDACFF6CFDF91CF91AD
S1130B101F910F9108950F931F93CF93DF934ED09E
S1130B2055D0C8EDD0E088818F778883888180682C
S1130B30888388818F7D8883E7EDF0E080818068F9
S1130B40808319BC1EBA1092460410924804109275
S1130B50470400EE10E0F80180818B7F8083888158
S1130B608160888342E060E080E0B1DEE1EEF0E0A5
S1130B7080818E7F8083E2EEF0E0808181608083DB
S1130B80808188608083F80180818E7F8083888162
S1130B9080618883DF91CF911F910F910895E8EDD3
S1130BA0F0E080818F7E8083E7EDF0E080818160DA
S1130BB0808381E080934904AECF0895E8EDF0E0AE
S1130BC080818C7F80831092E20008951092DA0075
S1130BD01092E10008951F920F920FB60F92112404
S1130BE00BB60F922F933F934F935F936F937F9323
S1130BF08F939F93AF93BF93EF93FF938091E10003
S1130C0082FF0AC08091E20082FF06C0E1EEF0E0BC
S1130C1080818B7F80834AD28091DA0080FF1BC061
S1130C208091D80080FF17C0EAEDF0E080818E7FCC
S1130C3080838091D90080FF0BC084E189BD86E167
S1130C4089BD09B400FEFDCF81E08EBB78D603C018
S1130C5019BC1EBA75D68091E10080FF15C0809141
S1130C60E20080FF11C0E2EEF0E080818E7F80839D
S1130C70808180618083E8EDF0E080818062808300
S1130C8019BC85E08EBB12D28091E10084FF2DC097
S1130C908091E20084FF29C084E189BD86E189BD99
S1130CA009B400FEFDCFE8EDF0E080818F7D808304
S1130CB0E1EEF0E080818F7E8083E2EEF0E08081DF
S1130CC08F7E808380818160808380914604882325
S1130CD019F084E08EBB08C08091E300882314F4EB
S1130CE083E001C081E08EBBE1D18091E10083FF0C
S1130CF022C08091E20083FF1EC0E1EEF0E080811B
S1130D00877F808382E08EBB1092460480818E7F31
S1130D108083E2EEF0E080818E7F80838081806139
S1130D20808342E060E080E0D2DDE0EFF0E08081AB
S1130D3088608083BBD1FF91EF91BF91AF919F9168
S1130D408F917F916F915F914F913F912F910F9070
S1130D500BBE0F900FBE0F901F9018951F920F920D
S1130D600FB60F9211240BB60F922F933F934F930C
S1130D705F936F937F938F939F93AF93BF93CF931F
S1130D80EF93FF93C091E900CF708091EC00109233
S1130D90E900E0EFF0E08081877F808378941DD0C4
S1130DA0E9EEF0E01082A0EFB0E08C9188608C93C3
S1130DB0C083FF91EF91CF91BF91AF919F918F919C
S1130DC07F916F915F914F913F912F910F900BBE47
S1130DD00F900FBE0F901F9018950F931F93CF93F2
S1130DE0DF93CDB7DEB7AA970FB6F894DEBF0FBE78
S1130DF0CDBFEAE4F4E082E594E0A1EFB0E02C9109
S1130E002193E817F907D9F7BED58091E80083FF4D
S1130E1028C190914A0480914B04853009F478C02C
S1130E2030F48130B1F168F0833099F11AC188301F
S1130E3009F4E7C0893009F4F4C0863009F011C11F
S1130E4089C0903821F0923809F00BC108C0809114
S1130E50470490914804992371F082600CC08091FA
S1130E604E048F70E9EEF0E080838091EB0085FB07
S1130E70882780F91082E8EEF0E09081977F9083D4
S1130E80A1EFB0E08C931C9280818E778083E0DDAB
S1130E90E8C0992309F4F4C0923009F0E2C0F5C027
S1130EA091E0833009F090E09093480428C02091A9
S1130EB04E042F7009F4D5C02093E9008091EB0013
S1130EC080FF1DC080914B04833031F4EBEEF0E0E1
S1130ED080818062808313C0EBEEF0E080818061CA
S1130EE0808381E090E002C0880F991F2A95E2F781
S1130EF0AAEEB0E08C931C9280818860808310926B
S1130F00E900E8EEF0E08081877F8083A1DDA9C05D
S1130F109111A7C010914C041F77E3EEF0E080819B
S1130F208078812B8083E8EEF0E08081877F808366
S1130F308FDDE8EEF0E0808180FFFDCFE3EEF0E0AE
S1130F40808180688083112311F083E001C082E0F6
S1130F508EBB87C09058923008F083C080914C04B7
S1130F6090914D048C3D23E0920799F583E08A83A8
S1130F708AE289835FB7F894DE01139620E03EE0AD
S1130F8041E2E32FF0E040935700849120FF03C037
S1130F9082958F703F5F8F708A3018F090E0C7960B
S1130FA002C090E0C0968D939D932F5F243149F742
S1130FB05FBF08EE10E0F8018081877F80836AE2DA
S1130FC070E0CE01019692DBF80180818B778083FB
S1130FD048C0AE014F5F5F4F60914E04BAD800978E
S1130FE009F43FC008EE10E0F8012081277F208338
S1130FF0BC0189819A81F1DBF80180818B77808340
S113100030C0903871F5E8EEF0E08081877F80830E
S1131010809146048093F10080818E77808318DD6F
S113102020C091111EC080914C048230D0F4E8EEAF
S1131030F0E08081877F808380914C048093460414
S113104007DD80914604882319F084E08EBB08C034
S11310508091E300882314F484E001C081E08EBB16
S11310608DD48091E80083FF16C0E8EEF0E0808123
S1131070877F8083EBEEF0E08081806280830BC009
S113108090914C04913069F70BCF80914C048823E4
S113109009F40DCF34CFAA960FB6F894DEBF0FBE75
S11310A0CDBFDF91CF911F910F9108950895CF93F4
S11310B08EB38823A1F0C091E900CF708091EC0039
S11310C080FF02C080E801C080E0C82B1092E900D4
S11310D08091E80083FD81DECF70C093E900CF9159
S11310E008951F920F920FB60F9211240BB60F9210
S11310F02F933F934F935F936F937F938F939F931C
S1131100AF93BF93EF93FF93809142029091430278
S1131110A0914402B09145020196A11DB11D809396
S1131120420290934302A0934402B09345028091FB
S11311302701813081F5809147028130B1F46091BB
S1131140420270914302809144029091450228E248
S113115030E040E050E0CFD4672B682B692B81F559
S113116092B181E0892782B92BC0609142027091CB
S11311704302809144029091450226E930E040E028
S113118050E0B9D4672B682B692BD1F492B181E07C
S1131190892782B915C060914202709143028091FF
S11311A044029091450224EF31E040E050E0A3D4A2
S11311B0672B682B692B21F492B181E0892782B9CE
S11311C0FF91EF91BF91AF919F918F917F916F911B
S11311D05F914F913F912F910F900BBE0F900FBED7
S11311E00F901F90189581E00E94E60082E00E9413
S11311F0E60083E00C94E6000895ED9A089584B720
S1131200877F84BF88E10FB6F894809360001092C2
S113121060000FBE90E080E80FB6F8948093610000
S1131220909361000FBE60D8BADCE6E3F2E02FB71A
S1131230F89486EB91E091838083938382839583F2
S1131240848386E392E09783868380E890E09187A5
S11312508087138612862FBFEAEAF1E02FB7F8944D
S11312608AE291E09183808393838283958384834C
S11312708AEA91E09783868380E890E0918780876B
S1131280138612862FBFB9DF78940895EF92FF92E8
S11312900F931F93CF93DF9300E412E0CEE3D2E0E9
S11312A00F2EF6E3EF2EF2E0FF2EF02D2CC010925D
S11312B028018FB7F894F801208131818FBF88818C
S11312C099812817390799F380E091E034D999235B
S11312D044F1F701A081B1818C93808191810196C1
S11312E091838083268137818217930721F4848137
S11312F09581918380832FB7F89482859385019695
S1131300938782872FBF109228018FB7F894F80132
S1131310208131818FBF8881998128173907A1F6EF
S1131320C6CFDF91CF911F910F91FF90EF90089559
S1131330FF920F931F93CF93DF932FB7F89480916D
S1131340B4019091B5012FBF0097C9F1209101011B
S11313502F702093E9002091E80020FF30C08431F1
S1131360910510F083E190E0F82E882341F1C0E06C
S1131370D0E00AEA11E0E091AC01F091AD016081A6
S113138080E091E06DD881111AC0F80182819381C7
S1131390019693838283268137818217930721F4F0
S11313A084819581938382832FB7F8948285938572
S11313B00197938782872FBF2196FC12DCCFDF91A0
S11313C0CF911F910F91FF900895CF93DF932EB388
S11313D0243009F06EC02FB7F8944091B4015091B5
S11313E0B5012FBF2091B2013091B30142175307C9
S11313F009F45FC0FC012081222311F1DC01119664
S11314004AEA51E0FA01C081D181288320813181E7
S11314102F5F3F4F318320838681978128173907B7
S113142021F484819581918380832FB7F8948285F8
S113143093850196938782872FBF2D912111E2CF47
S1131440EAEAF1E0A081B1818DE08C938081918101
S1131450019691838083268137818217930721F433
S113146084819581918380832FB7F89482859385B5
S11314700196938782872FBFEAEAF1E0A081B181C8
S11314808AE08C9380819181019691838083268167
S113149037818217930721F4848195819183808316
S11314A02FB7F894828593850196938782872FBFFF
S11314B03FDFDF91CF9108959EB3943051F59FB7EC
S11314C0F8944091B4015091B5019FBF2091B201AD
S11314D03091B30142175307E1F0EAEAF1E0A08149
S11314E0B1818C938081918101969183808326813F
S11314F037818217930721F48481958191838083B6
S11315002FB7F894828593850196938782872FBF9E
S11315100FCF08951092460280914602843178F4E8
S1131520E0914602F0E0ED5AFB4F108280914602B2
S11315308F5F8093460280914602843188F3109233
S1131540460208951F920F920FB60F9211240BB604
S11315500F922F933F934F935F936F937F938F9348
S11315609F93AF93BF93EF93FF9362E370E08FEE8B
S11315700E94EA01CFDF0E947C0180914702811121
S113158006C081E080934702719A709804C010925B
S113159047027198709A659BFECF8FE39FE1019794
S11315A0F1F700C00000659BFECFFF91EF91BF9162
S11315B0AF919F918F917F916F915F914F913F91E7
S11315C02F910F900BBE0F900FBE0F901F90189588
S11315D00F931F93CF93DF939FB7F89430914002FA
S11315E0209141029FBF882331F0832F922F46E33D
S11315F052E0C1E08BC0C32FD22F06E312E030C00B
S1131600F801A281B3812D91B383A283868197814E
S1131610A817B90721F484819581938382833FB706
S1131620F894828593850197938782873FBF2D30F5
S113163009F471C0E091460281E08E0F8093460266
S1131640F0E0ED5AFB4F2083E0914602F0E0ED5AC2
S1131650FB4F1082809146028B3008F05BDF2197AC
S1131660209771F680E058C0FA01A281B3817D9180
S1131670B383A28326813781A217B30721F424817F
S11316803581338322836FB7F894228533852150C3
S11316903109338722876FBF20912901211117C097
S11316A077239CF510924602E091460221E02E0F2A
S11316B020934602F0E0ED5AFB4F7083E09146021E
S11316C0F0E0ED5AFB4F1082C09329011EC0213077
S11316D0B1F477238CF0E091460281E08E0F809381
S11316E04602F0E0ED5AFB4F7083E0914602F0E0D1
S11316F0ED5AFB4F108205C01092290106C022301A
S113170021F41092290181E007C00197009709F0A4
S1131710ABCF80E001C081E0DF91CF911F910F91A9
S1131720089580E055DF813059F46BE171E083E581
S113173094E003D2892B19F480E291E046DEEACEEC
S11317400895CF92DF92EF92FF92C0904202D09020
S11317504302E0904402F090450223C080E091E00F
S11317600E948602A4DC8091420290914302A091DF
S11317704402B09145028C199D09AE09BF094497F2
S1131780A105B10570F080912701813051F4C0901A
S11317904202D0904302E0904402F090450276DD8C
S11317A0C0DF809147028823C9F2FF90EF90DF9059
S11317B0CF90089581E00CDF813061F4809153046F
S11317C0883E39F480915404811102C0129801C0FA
S11317D0129AA0CE08954F925F927F928F929F9219
S11317E0AF92BF92CF92DF92EF92FF921F93CF936B
S11317F0DF938090420290904302A0904402B09004
S113180045020F2EF8E4CF2EF2E0DF2EF02D712CDE
S11318100F2EF8E7EF2EF2E0FF2EF02D0F2EFAE751
S11318204F2EF2E05F2EF02D5CC080E091E00E942C
S113183086023DDC40914202509143026091440291
S113184070914502481959096A097B0943305105C9
S11318506105710508F445C080912701813009F0C4
S113186040C08090420290904302A0904402B09005
S113187045020E9412010ADD9DDFE601172D299120
S11318803991812F8F70880F880F880F8068220FFD
S1131890232F221F330B31952770822B0DDE8C8D65
S11318A08F770ADE1F5F163051F7F701808191812F
S11318B0892B29F087EB00DE8FE7FEDD04C080EB87
S11318C0FBDD872DF9DDF20180819181892B29F0DF
S11318D08FEBF2DD8FE7F0DD04C088EBEDDD872DC3
S11318E0EBDD80914702813009F49FCFDF91CF91E6
S11318F01F91FF90EF90DF90CF90BF90AF909F909B
S11319008F907F905F904F900895109242021092B2
S11319104302109244021092450280E880936100D1
S1131920709A6DDC0E94260180914702811102C0E9
S113193008DF01C050DF0E947C0155DCF5CF08951B
S1131940109227010895CF93FC01C089C170809142
S11319502601811106C0CC2349F081E08093270140
S113196005C0C11103C0109227013DDC81E0C11103
S113197001C080E080932601CF91089580E091E03A
S11319800C940E02089580E091E00C94D602089520
S1131990DF92EF92FF920F931F93CF93DF93FC019B
S11319A0818D813041F0823011F0D12C08C06894CF
S11319B0DD24D5F804C00F2EF0E3DF2EF02D808D4A
S11319C0823019F48D2D8860D82E828D873041F0B5
S11319D0883051F0863059F4AD2DA260DA2E07C05C
S11319E0BD2DB460DB2E03C08D2D8660D82E5B9A8E
S11319F0C9ECD0E0188208EC10E0D8011C920F2E3C
S1131A00FAECEF2EF12CF02DD7011C9224893589A4
S1131A1046895789DA01C901B695A795979587959F
S1131A20BC01CD0160587B47814E9F4F64D021504B
S1131A3031093093CD002093CC00F701D08282E0AD
S1131A40D8018C9388E988835B98DF91CF911F91AB
S1131A500F91FF90EF90DF9008951F920F920FB6B1
S1131A600F9211240BB60F922F933F934F938F93A2
S1131A709F93AF93BF93EF93FF934091CE008EB3A8
S1131A80843049F58FB7F8942091B4013091B501B1
S1131A908FBF8091B2019091B30128173907D9F013
S1131AA0EAEAF1E0A081B1814C93808191810196B1
S1131AB091838083268137818217930721F484815F
S1131AC09581918380832FB7F894828593850196BD
S1131AD0938782872FBFFF91EF91BF91AF919F9121
S1131AE08F914F913F912F910F900BBE0F900FBE8E
S1131AF00F901F901895A1E21A2EAA1BBB1BFD0183
S1131B000DC0AA1FBB1FEE1FFF1FA217B307E407D8
S1131B10F50720F0A21BB30BE40BF50B661F771F30
S1131B20881F991F1A9469F7609570958095909510
S1131B309B01AC01BD01CF010895FB01DC018D9136
S1131B40019080190110D9F3990B0895F894FFCFEF
S1131B500083140000010414000001820800000145
S1131B60000000000000000000000070696E6700C3
S1091B70706F6E670000B7
S9030000FC
