S02400004C5546415F50524F4A454354535F5553425F544F5F53455249414C332E7372656372
S113000088C00000A5C00000A3C00000A1C000007B
S11300109FC000009DC000000C94250A99C00000F8
S113002097C0000095C000006DC700000C944708FD
S11300308FC000008DC000008BC0000089C000008C
S113004087C0000085C0000083C0000081C000009C
S11300507FC000007DC000007BC0000079C00000AC
S113006077C000000C94911273C0000071C00000AE
S11300706FC0000096C200006BC0000069C00000A1
S113008067C0000065C0000063C0000061C00000DC
S11300905FC000005DC000000E034D00430020005F
S11300A033002E00300000001403500045005400BB
S11300B0450020004C0054004400410000000403AB
S11300C0090409023E00020100C0320904000001D3
S11300D0020201000524001001042402060524067E
S11300E00001070582030800FF09040100020A0059
S11300F0000007050402100005070583021000052F
S11301001201100102000008D0162D200100010286
S1130110DC0111241FBECFEFD0E2DEBFCDBF11E062
S1130120A0E0B1E0E6E6F6E200E00BBF02C0079013
S11301300D92AA35B107D9F724E0AAE5B1E001C0D0
S11301401D92A339B207E1F70E9411120C943113E6
S113015057CF292F33272230310559F02330310569
S113016069F02130310529F180E090E020E030E0B1
S113017029C08EE390E022EC30E024C0992781303E
S1130180910559F08230910571F0892BB9F4EEEBA9
S1130190F0E0849190E09F0115C0E8EAF0E08491DA
S11301A090E09F010FC0E8E9F0E0849190E09F01A6
S11301B009C082E190E020E031E004C080E090E0FA
S11301C020E030E0FA01318320830895813009F47E
S11301D0709808958A3091055CF1833391055CF140
S11301E08C3591055CF18D3791055CF18F3A910561
S11301F05CF1853F91055CF1843221E0920754F172
S11302008C3421E092074CF18C3A22E0920744F1BD
S11302108A3F22E092073CF1833923E0920734F1CC
S1130220863B23E092072CF1883E93402CF10895FD
S113023080E090E0089582E090E0089583E090E00B
S1130240089584E090E0089585E090E0089586E0C4
S113025090E0089587E090E0089588E090E00895A4
S11302608DEF9FEF08958EEF9FEF08958AEF9FEF34
S1130270089589EF9FEF08958BEF9FEF08950597F9
S11302801CF480E090E0089584E690E008958438BA
S113029093401CF480E090E0089580E890E0089595
S11302A01F93CF93DF9386E090E07CD190939102EB
S11302B080939002ECE7F0E08081807F8760808308
S11302C0C4E7D2E050E0AAE7B0E018E070E060E0F4
S11302D0E8E7F0E088B1807F852B88B98C91806451
S11302E08C93412F872F962F23B7216023BF8895A6
S11302F023B72E7F23BF20813181820F931F41506A
S113030099F7969587959695879596958795899368
S113031099935F5F5E30F1F6DF91CF911F9108955D
S1130320CF93DF93CEE7D2E08881998153DF99831D
S11303308883C4E7D2E0888199814CDF99838883DC
S1130340C2E8D2E08881998145DF99838883C8E730
S1130350D2E0888199813EDF99838883C4E8D2E022
S1130360888199818CDF99838883CEE8D2E0888163
S1130370998185DF99838883C6E8D2E08881998151
S113038086DF99838883CCE8D2E0888199817FDFF6
S113039099838883DF91CF91089580917E02909113
S11303A07F02992394F480917C0290917D028115BF
S11303B092402CF410927D0210927C0206C081E0DF
S11303C090E090937D0280937C02809174029091DE
S11303D07502992394F480917602909177028115A5
S11303E092402CF4109277021092760206C081E0BB
S11303F090E09093770280937602809182029091AC
S11304008302992394F48091800290918102811552
S113041092402CF4109281021092800206C081E076
S113042090E0909381028093800280917802909171
S11304307902992394F480917A0290917B02811538
S113044092402CF410927B0210927A02089581E07B
S113045090E090937B0280937A0208950F931F9308
S1130460CF93DF9302E912E0C0E0D0E0CE019AD04E
S1130470F801819391938F012196C630D105B1F78C
S1130480DF91CF911F910F91089589B1847090E00D
S11304909093A1028093A00289B1887090E0909318
S11304A0A3028093A2028CB1807490E09093A50281
S11304B08093A40283B1807290E09093A70280930A
S11304C0A60289B1807490E09093A9028093A80257
S11304D083B1807490E09093AB028093AA0283B1BD
S11304E0807890E09093AD028093AC028CB18078D8
S11304F090E09093AF028093AE0289B1807190E056
S11305009093B1028093B00286B1807290E0909390
S1130510B3028093B20283B181708093B4021092CB
S1130520B50283B1847090E09093B7028093B602D1
S113053083B1887090E09093B9028093B80283B13C
S1130540827090E09093BB028093BA020895A8DE73
S11305508CB18695869591E08927817080939E025F
S113056010929F027BDF91CF089587B18F6087B986
S1130570ECE7F0E0808180648083EAE7F0E080814A
S113058087608083808180688083089583B7817FBA
S1130590826083BFEAE7F0E080818860808378949A
S11305A008951895883060F098B18850907F892B11
S11305B088B9ECE7F0E08081807F8760808306C0A3
S11305C0ECE7F0E09081907F892B8083EAE7F0E00C
S11305D080818064808348E080E090E0E8E7F0E098
S11305E023B7216023BF889523B72E7F23BF2081A3
S11305F03181820F931F415099F79695879596956F
S113060087959695879508958DB183618DB9559A8F
S1130610709871985D98749808958DB18B7D8DB99B
S11306208EB184628EB90895EFDFF7DF7ED09DDF4F
S11306305BD006D035C0089578D097DF55C00895B3
S11306403D9A579A3C9A3E9A569A549A5F9844987F
S11306505E985C9888E590E0909399008093980068
S113066090939B0080939A00E0E9F0E0808182609F
S11306708083A1E9B0E08C9188618C938C91816036
S11306808C9380EB90E09093970080939600808108
S1130690806880838081806280833F9A479A08952E
S11306A080E89CE0909389008093880090938B006D
S11306B080938A00E0E8F0E0808182608083A1E892
S11306C0B0E08C9188618C938C9182608C9380E4EF
S11306D09CE9909387008093860080818068808362
S11306E08081806280830895E0EBF0E08081826005
S11306F08083808180648083E1EBF0E08081866088
S1130700808308958093B300249A6115710559F08C
S11307108FE99FE00197F1F700C000006150710973
S113072061157105A9F7249808951092CD0087E604
S11307308093CC00E8ECF0E080818D7F808388E1B9
S11307408093C90086E08093CA000895CF93DF9315
S1130750EC01FC0170968BE0DF011D928A95E9F7AC
S113076082E08C83898783E08E8761E0CE010196E5
S1130770A9D2882351F061E0CE010696A3D2882342
S113078021F061E0CE010B969DD2DF91CF910895C7
S1130790CF93C62F2EB32430E9F4FC014489558944
S11307A066897789452B462B472BB1F081818F7061
S11307B08093E9008091E80085FD08C0E8EEF0E050
S11307C080818E778083FDD2811107C0C093F100B0
S11307D080E003C082E001C082E0CF9108952EB38F
S11307E0243021F5FC014489558966897789452B94
S11307F0462B472BE9F081818F708093E90080912B
S1130800F2009091F300892BA9F0E8EEF0E08081EA
S113081090819E77908385FD0FC0D3D281110DC046
S1130820E8EEF0E090819E779083089582E0089549
S113083082E0089580E0089580E008952EB3243086
S113084089F4FC014489558966897789452B462BAF
S1130850472B41F021812F702093E9002091E8007B
S113086020FDBDCF08952EB3243059F5FC014489F1
S1130870558966897789452B462B472B29F1868133
S11308808F708093E9008091E80082FF20C08091FE
S1130890F2009091F300892B21F02091F10030E0D7
S11308A002C02FEF3FEF8091F2009091F300892B6B
S11308B089F4E8EEF0E080818B778083822F932F98
S11308C008958FEF9FEF08958FEF9FEF08958FEFB7
S11308D09FEF0895822F932F08950895CF93DF9368
S11308E0EC018091E80083FF95C0888190E020911D
S11308F07A0430917B042817390709F08BC0809162
S11309007704813259F018F48032B9F183C082320D
S113091009F45FC0833209F46FC07CC0809176040F
S1130920813A09F077C0E8EEF0E08081877F808328
S1130930808180FFFDCF4C895D896E897F89E1EFDD
S1130940F0E04083BB27A72F962F852F8083CB0110
S1130950AA27BB278083472F5527662777274083FD
S1130960888D8083898D80838A8D8083E8EEF0E092
S113097080818E77808303D24DC08091760481324A
S113098009F048C0E8EEF0E08081877F808304C0EE
S11309908EB3882309F43EC0808182FFF9CFE1EF52
S11309A0F0E030812081908180813C8B2D8B9E8B67
S11309B08F8B8081888F8081898F80818A8FE8EEF8
S11309C0F0E080818B778083DAD1CE010E942C12F3
S11309D021C0809176048132E9F4E8EEF0E0808170
S11309E0877F8083CCD18091780490917904998B0E
S11309F0888BCE0172DF0EC080917604813251F46F
S1130A00E8EEF0E08081877F8083B9D1609178043B
S1130A10CE0163DFDF91CF9108950F931F93CF939E
S1130A20DF9320917C0430917D042617370758F01A
S1130A306115710539F4E8EEF0E020812E7720830A
S1130A409B0101C09B01A0E0E8EEF0E062EF70E0E2
S1130A50C1EFD0E011E000E034C04EB3442309F408
S1130A6043C0453009F442C0408143FD41C0408148
S1130A7042FF03C0E8EEF0E032C0408140FF21C0F5
S1130A80DB014D915C912115310599F048305105F8
S1130A9080F4A82FB92F8D9188838A2F9B2F215002
S1130AA031094F5F5F4F2115310519F04830510569
S1130AB091F7A12F4830510509F0A02F40814E77BE
S1130AC040832115310549F6A111C7CFD3CF8EB389
S1130AD0882381F0853081F0808183FD0FC080817F
S1130AE082FFF5CF80E00BC082E009C083E007C03D
S1130AF081E005C082E003C083E001C081E0DF91B2
S1130B00CF911F910F910895EF92FF921F93CF936E
S1130B10DF9320917C0430917D042617370758F029
S1130B206115710539F4E8EEF0E020812E77208319
S1130B309B0101C09B01E82FF92F60E0A8EEB0E013
S1130B4042EF50E00F2EF1EFEF2EF12CF02D71E07B
S1130B5010E030C08EB3882309F43FC0853009F417
S1130B603EC08C9183FD3DC08C9182FF03C0E8EEB2
S1130B70F0E02EC08C9180FF1DC0EA01888199812C
S1130B802115310581F08830910568F46491E701FD
S1130B90688331962150310901962115310519F0E8
S1130BA08830910599F7672F089709F0612F8C9188
S1130BB08E778C932115310569F66111CBCFD7CF90
S1130BC08EB3882381F0853081F0808183FD0FC04E
S1130BD0808182FFF5CF80E00BC082E009C083E012
S1130BE007C081E005C082E003C083E001C081E06A
S1130BF0DF91CF911F91FF90EF9008958F929F9274
S1130C00BF92CF92DF92EF92FF920F931F93CF93F5
S1130C10DF93873070F126C0592F5F70E801588345
S1130C20891731F0E901D8805081E401788103C04B
S1130C305B2DD62E7C2D51FF12C04C914E7F4C93D0
S1130C4040814D7F40834C9141604C93E901D882AF
S1130C505083E4017883E7015881552344F49F5F6E
S1130C609730D1F68F708093E90081E01FC080E057
S1130C701DC0982F9F709093E900982F542FD62E63
S1130C8070E0ABEEB0E0EDEEF0E02CEE30E00F2ED5
S1130C90F0EF8F2E912CF02D0F2EFEEEEF2EF12C77
S1130CA0F02D09EE10E0B42EC12CC5CFDF91CF9109
S1130CB01F910F91FF90EF90DF90CF90BF909F9086
S1130CC08F900895BF92CF92DF92EF92FF920F938D
S1130CD01F93CF93DF93062F662309F441C0C82FD7
S1130CE0D92F10E0F12C6894DD24D3F8E12C68941A
S1130CF0BB24B1F80F2EF6E0CF2EF02D58815523EA
S1130D0051F19C81E981FA817B81852F8F70873035
S1130D1048F5923010F04C2D01C04B2DE930F1050F
S1130D2050F02D2D3E2D9F2D9F5F220F331F2E1728
S1130D303F07D0F301C09F2D9295907F492B551FFB
S1130D405527551F90E4799F90011124652F622B3C
S1130D5055DF882351F01F5F25961013CFCF04C0B1
S1130D6081E003C080E001C081E0DF91CF911F9159
S1130D700F91FF90EF90DF90CF90BF9008958091F6
S1130D80760488231CF0E8EEF0E012C0E8EEF0E010
S1130D9003C08EB38823A1F0808182FFFACFE8EEEE
S1130DA0F0E080818B77808308958EB3882341F0AF
S1130DB0808180FFFACFE8EEF0E080818E77808337
S1130DC008950F931F93CF93DF932091E400309104
S1130DD0E50065E6ACEEB0E0E8EEF0E00BEE10E026
S1130DE044EE50E08C9180FD20C023C08EB3882354
S1130DF081F0853081F0E801888185FD0EC0EA012B
S1130E00888199812817390769F3615041F09C0161
S1130E10E9CF82E012C083E010C081E00EC084E01C
S1130E200CC080E00AC080E008C0808180FFDECF73
S1130E30F8CF808182FFDACFF6CFDF91CF911F9177
S1130E400F9108950F931F93CF93DF934ED055D0F6
S1130E50C8EDD0E088818F77888388818068888313
S1130E6088818F7D8883E7EDF0E0808180688083CE
S1130E7019BC1EBA10927204109274041092730476
S1130E8000EE10E0F80180818B7F8083888181608F
S1130E90888342E060E080E0B1DEE1EEF0E0808152
S1130EA08E7F8083E2EEF0E08081816080838081A8
S1130EB088608083F80180818E7F8083888180614F
S1130EC08883DF91CF911F910F910895E8EDF0E0B1
S1130ED080818F7E8083E7EDF0E080818160808374
S1130EE081E080937504AECF0895E8EDF0E0808151
S1130EF08C7F80831092E20008951092DA001092A1
S1130F00E10008951F920F920FB60F9211240BB6B1
S1130F100F922F933F934F935F936F937F938F938E
S1130F209F93AF93BF93EF93FF938091E10082FF70
S1130F300AC08091E20082FF06C0E1EEF0E0808109
S1130F408B7F80834FD28091DA0080FF1DC0809117
S1130F50D80080FF19C0EAEDF0E080818E7F8083A5
S1130F608091D90080FF0CC084E189BD86E189BDF0
S1130F7009B400FEFDCF81E08EBB0E94201204C0A4
S1130F8019BC1EBA0E9421128091E10080FF15C095
S1130F908091E20080FF11C0E2EEF0E080818E7F5C
S1130FA08083808180618083E8EDF0E080818062CD
S1130FB0808319BC85E08EBB15D28091E10084FF4B
S1130FC02DC08091E20084FF29C084E189BD86E1BF
S1130FD089BD09B400FEFDCFE8EDF0E080818F7D8E
S1130FE08083E1EEF0E080818F7E8083E2EEF0E0AA
S1130FF080818F7E80838081816080838091720470
S1131000882319F084E08EBB08C08091E300882314
S113101014F483E001C081E08EBBE4D18091E1004F
S113102083FF22C08091E20083FF1EC0E1EEF0E066
S11310308081877F808382E08EBB109272048081DE
S11310408E7F8083E2EEF0E080818E7F80838081DA
S11310508061808342E060E080E0D0DDE0EFF0E09A
S1131060808188608083BED1FF91EF91BF91AF9161
S11310709F918F917F916F915F914F913F912F91AC
S11310800F900BBE0F900FBE0F901F9018951F92DC
S11310900F920FB60F9211240BB60F922F933F931A
S11310A04F935F936F937F938F939F93AF93BF936C
S11310B0CF93EF93FF93C091E900CF708091EC0040
S11310C01092E900E0EFF0E08081877F80837894DC
S11310D01DD0E9EEF0E01082A0EFB0E08C918860C2
S11310E08C93C083FF91EF91CF91BF91AF919F916A
S11310F08F917F916F915F914F913F912F910F90BD
S11311000BBE0F900FBE0F901F9018950F931F9357
S1131110CF93DF93CDB7DEB7AA970FB6F894DEBFAF
S11311200FBECDBFE6E7F4E08EE794E0A1EFB0E0B8
S11311302C912193E817F907D9F70E94271280917F
S1131140E80083FF2AC1909176048091770485306A
S113115009F478C030F48130B1F168F0833099F14A
S11311601CC1883009F4E8C0893009F4F5C0863020
S113117009F013C189C0903821F0923809F00DC1EB
S113118008C08091730490917404992371F0826073
S11311900CC080917A048F70E9EEF0E08083809136
S11311A0EB0085FB882780F91082E8EEF0E090815F
S11311B0977F9083A1EFB0E08C931C9280818E770F
S11311C08083DDDDEAC0992309F4F6C0923009F08A
S11311D0E4C0F7C091E0833009F090E09093740488
S11311E028C020917A042F7009F4D7C02093E90015
S11311F08091EB0080FF1DC080917704833031F42F
S1131200EBEEF0E080818062808313C0EBEEF0E0CF
S113121080818061808381E090E002C0880F991F03
S11312202A95E2F7AAEEB0E08C931C928081886044
S113123080831092E900E8EEF0E08081877F80836C
S11312409EDDABC09111A9C0109178041F77E3EE25
S1131250F0E080818078812B8083E8EEF0E080816B
S1131260877F80838CDDE8EEF0E0808180FFFDCF16
S1131270E3EEF0E0808180688083112311F083E045
S113128001C082E08EBB89C09058923008F085C0BE
S113129080917804909179048C3D23E0920799F52C
S11312A083E08A838AE289835FB7F894DE01139628
S11312B020E03EE041E2E32FF0E0409357008491C8
S11312C020FF03C082958F703F5F8F708A3018F0C3
S11312D090E0C79602C090E0C0968D939D932F5FD7
S11312E0243149F75FBF08EE10E0F8018081877F61
S11312F080836AE270E0CE0101968FDBF801808181
S11313008B7780834AC0AE014F5F5F4F60917A0450
S11313100E94A900009709F440C008EE10E0F8010B
S11313202081277F2083BC0189819A81EDDBF8012C
S113133080818B77808331C0903879F5E8EEF0E0D6
S11313408081877F8083809172048093F100808103
S11313508E77808314DD21C091111FC080917804A1
S11313608230D8F4E8EEF0E08081877F808380913A
S113137078048093720403DD80917204882319F049
S113138084E08EBB08C08091E300882314F484E0D9
S113139001C081E08EBB0E9422128091E80083FF8D
S11313A016C0E8EEF0E08081877F8083EBEEF0E00A
S11313B08081806280830BC090917804913069F7BA
S11313C009CF80917804882309F40BCF32CFAA96F1
S11313D00FB6F894DEBF0FBECDBFDF91CF911F9142
S11313E00F9108950895CF938EB38823A1F0C091EF
S11313F0E900CF708091EC0080FF02C080E801C05A
S113140080E0C82B1092E9008091E80083FD7EDE25
S1131410CF70C093E900CF91089588E09CE0909349
S113142089008093880090938B0080938A000895AC
S113143081E090E00E94E60082E090E00E94E600F5
S113144083E090E00C94E60008951F920F920FB68B
S11314500F9211240BB60F922F933F934F935F93E8
S11314606F937F938F939F93AF93BF93EF93FF9368
S113147065E070E08FEE46D980917302811104C05B
S113148081E08093730202C010927302659BFECFC9
S11314908FE39FE10197F1F700C00000659BFECF49
S11314A0FF91EF91BF91AF919F918F917F916F9138
S11314B05F914F913F912F910F900BBE0F900FBEF4
S11314C00F901F901895ED9A089584B7877F84BF75
S11314D088E10FB6F89480936000109260000FBE0C
S11314E090E080E80FB6F8948093610090936100D7
S11314F00FBE9AD8EBDCE6E6F2E02FB7F89486EE5E
S113150091E091838083938382839583848386E6A9
S113151092E09783868380E890E0918780871386A2
S113152012862FBFEAEDF1E02FB7F8948AE591E037
S11315309183808393838283958384838AED91E06E
S11315409783868380E890E091878087138612864C
S11315502FBFB9DF789408958FB7F8942091700263
S1131560309171028FBF80916E0290916F022817A3
S1131570390701F180E091E076D99923DCF0E6E6C1
S1131580F2E0A081B1818C93808191810196918355
S11315908083268137818217930721F48481958182
S11315A0918380832FB7F8948285938501969387DE
S11315B082872FBF0895FF920F931F93CF93DF93DA
S11315C02FB7F8948091E4019091E5012FBF009723
S11315D0C9F1209101012F702093E9002091E800C6
S11315E020FF30C08031910510F08FE090E0F82E9C
S11315F0882341F1C0E0D0E00AED11E0E091DC0184
S1131600F091DD01608180E091E0C2D881111AC0BF
S1131610F8018281938101969383828326813781A5
S11316208217930721F484819581938382832FB752
S1131630F894828593850197938782872FBF21969B
S1131640FC12DCCFDF91CF911F910F91FF90089591
S1131650CF93DF932EB3243009F06EC02FB7F894E4
S11316604091E4015091E5012FBF2091E2013091B6
S1131670E3014217530709F45FC0FC0120812223D0
S113168011F1DC0111964AED51E0FA01C081D181DA
S11316902883208131812F5F3F4F318320838681CE
S11316A097812817390721F4848195819183808358
S11316B02FB7F894828593850196938782872FBFED
S11316C02D912111E2CFEAEDF1E0A081B1818DE00D
S11316D08C938081918101969183808326813781C7
S11316E08217930721F484819581918380832FB796
S11316F0F894828593850196938782872FBFEAEDBC
S1131700F1E0A081B1818AE08C938081918101967E
S113171091838083268137818217930721F4848102
S11317209581918380832FB7F89482859385019660
S1131730938782872FBF3FDFDF91CF910895CF93A7
S1131740DF932EB32430A9F52FB7F8944091E40128
S11317505091E5012FBF2091E2013091E30142173E
S1131760530739F1FC012081222311F1DC01119688
S11317704AED51E0FA01C081D18128832081318171
S11317802F5F3F4F31832083868197812817390744
S113179021F484819581918380832FB7F894828585
S11317A093850196938782872FBF2D912111E2CFD4
S11317B002DFDF91CF9108959EB3943009F095C074
S11317C09FB7F8944091E4015091E5019FBF2091A7
S11317D0E2013091E3014217530709F486C0EAEDB0
S11317E0F1E0A081B18199E28902912D11249595AE
S11317F095959595959587FD9395905D9C932081FE
S113180031812F5F3F4F31832083468157812417D5
S1131810350721F424813581318320839FB7F894DF
S1131820228533852F5F3F4F338722879FBFEAEDA1
S1131830F1E0A081B18127E68202912D11249595D2
S1131840959587FD93959202212D11242595259533
S113185097FD2395220F322F330F330F230F921B43
S1131860905D9C93208131812F5F3F4F3183208392
S1131870468157812417350721F42481358131832A
S113188020839FB7F894228533852F5F3F4F33879A
S113189022879FBFEAEDF1E0A081B18197E689023A
S11318A0912D11249595959587FD9395990F292F41
S11318B0220F220F920F891B805D8C93808191816E
S11318C0019691838083268137818217930721F4BF
S11318D084819581918380832FB7F8948285938541
S11318E00196938782872FBF66CE08959EB3943066
S11318F051F59FB7F8944091E4015091E5019FBFE1
S11319002091E2013091E30142175307E1F0EAED3F
S1131910F1E0A081B1818C938081918101969183C2
S11319208083268137818217930721F484819581EE
S1131930918380832FB7F89482859385019693874A
S113194082872FBF38CE08950F931F93CF93DF93D1
S11319509C018EB3843009F0DEC08FB7F8944091B7
S1131960E4015091E5018FBF8091E2019091E30180
S11319704817590709F4CFC03323FCF4EAEDF1E02A
S1131980A081B1818DE28C938081918101969183B4
S11319908083468157818417950721F4848195813A
S11319A0918380834FB7F8948285938501969387BA
S11319B082874FBF319521953109EAEDF1E0C0816D
S11319C0D181C90160E177E2FAD5605D68838081E5
S11319D0918101969183808346815781841795076D
S11319E021F484819581918380834FB7F894828513
S11319F093850196938782874FBFEAEDF1E0C0811A
S1131A00D181C90168EE73E0DAD5CB016AE070E0F8
S1131A10D6D5805D8883808191810196918380836E
S1131A20468157818417950721F484819581918398
S1131A3080834FB7F8948285938501969387828734
S1131A404FBFEAEDF1E0C081D181C90164E670E0E5
S1131A50B6D5CB016AE070E0B2D5805D8883808121
S1131A6091810196918380834681578184179507DC
S1131A7021F484819581918380834FB7F894828582
S1131A8093850196938782874FBFEAEDF1E0008149
S1131A901181CAE0D0E0C901BE0191D5CB01BE01DC
S1131AA08ED5805DD8018C9380819181019691833C
S1131AB08083468157818417950721F48481958119
S1131AC0918380834FB7F894828593850196938799
S1131AD082874FBFEAEDF1E0C081D181C9016AE09C
S1131AE070E06DD5805D88838081918101969183BA
S1131AF08083268137818217930721F4848195811D
S1131B00918380832FB7F894828593850196938778
S1131B1082872FBF50DDDF91CF911F910F910895E0
S1131B20FF920F931F93CF93DF9300D01F92CDB7F3
S1131B30DEB78DE298E7A0E089839A83AB831A82AB
S1131B4004E712E0F12C8F2D37DECE010196F7DD8C
S1131B50F801819191918F01F7DECE01019678DD34
S1131B60F394F3E2FF12EFCF0F900F900F90DF91F9
S1131B70CF911F910F91FF9008950F931F93CF93CF
S1131B80DF93CDB7DEB72C970FB6F894DEBF0FBE48
S1131B90CDBF8CE0EBE1F1E0DE01119601900D92F6
S1131BA08A95E1F71B865D98CE01019651DD8091FF
S1131BB07302813049F500E912E0749ACE0101966E
S1131BC047DD0E94A7020E9490015F98449A5E98A4
S1131BD05C9AA6DFF801808191814E975CF45D9850
S1131BE07498FFEF25EA8EE0F15020408040E1F741
S1131BF000C00000B1DC80E091E00E941E04F3DB31
S1131C00809173028130C9F22C960FB6F894DEBF2E
S1131C100FBECDBFDF91CF911F910F9108950F9308
S1131C201F93CF93DF939C018EB3843009F04EC28F
S1131C308FB7F8944091E4015091E5018FBF8091F2
S1131C40E2019091E3014817590709F43FC2332395
S1131C50FCF4EAEDF1E0A081B1818DE28C93808106
S1131C6091810196918380834681578184179507DA
S1131C7021F484819581918380834FB7F894828580
S1131C8093850196938782874FBF319521953109BA
S1131C90213187E238070CF4B2C0EAEDF1E0C081EB
S1131CA0D181C90160E177E28AD4605D6883808173
S1131CB0918101969183808346815781841795078A
S1131CC021F484819581918380834FB7F894828530
S1131CD093850196938782874FBFC90160E177E2BC
S1131CE06ED49C01EAEDF1E0C081D18168EE73E02D
S1131CF066D4CB016AE070E062D4805D8883808121
S1131D009181019691838083468157818417950739
S1131D1021F484819581918380834FB7F8948285DF
S1131D2093850196938782874FBFEAEDF1E0C081E6
S1131D30D181C90164E670E042D4CB016AE070E06D
S1131D403ED4805D888380819181019691838083D4
S1131D50468157818417950721F484819581918365
S1131D6080834FB7F8948285938501969387828701
S1131D704FBFEAEDF1E000811181CAE0D0E0C90172
S1131D80BE011DD4CB01BE011AD4805DD8018C9351
S1131D908081918101969183808346815781841744
S1131DA0950721F484819581918380834FB7F894BA
S1131DB0828593850196938782874FBFEAEDF1E090
S1131DC0C081D181C9016AE070E0F9D3805D888364
S1131DD08081918101969183808326813781821746
S1131DE0930721F484819581918380832FB7F8949C
S1131DF0828593850196938782872FBF66C1293E8A
S1131E00B3E03B070CF48EC0EAEDF1E0C081D18170
S1131E10C90168EE73E0D3D3605D688380819181EA
S1131E20019691838083468157818417950721F415
S1131E3084819581918380834FB7F89482859385BB
S1131E400196938782874FBFC90168EE73E0B7D3C9
S1131E509C01EAEDF1E0C081D18164E670E0AFD38A
S1131E60CB016AE070E0ABD3805D8883808191818F
S1131E70019691838083468157818417950721F4C5
S1131E8084819581918380834FB7F894828593856B
S1131E900196938782874FBFEAEDF1E000811181BB
S1131EA0CAE0D0E0C901BE018AD3CB01BE0187D309
S1131EB0805DD8018C938081918101969183808388
S1131EC0468157818417950721F4848195819183F4
S1131ED080834FB7F8948285938501969387828790
S1131EE04FBFEAEDF1E0C081D181C9016AE070E041
S1131EF066D3805D888380819181019691838083FC
S1131F00268137818217930721F4848195819183F7
S1131F1080832FB7F894828593850196938782876F
S1131F202FBFD3C0253631050CF46AC0EAEDF1E0C9
S1131F30C081D181C90164E670E041D3605D6883EA
S1131F408081918101969183808346815781841792
S1131F50950721F484819581918380834FB7F89408
S1131F60828593850196938782874FBFC90164E672
S1131F7070E025D39C01EAEDF1E000811181CAE013
S1131F80D0E0BE011CD3CB01BE0119D3805DD801C2
S1131F908C938081918101969183808346815781BE
S1131FA08417950721F484819581918380834FB7A9
S1131FB0F894828593850196938782874FBFEAEDD3
S1131FC0F1E0C081D181C9016AE070E0F8D2805D9E
S1131FD088838081918101969183808326813781D2
S1131FE08217930721F484819581918380832FB78D
S1131FF0F894828593850196938782872FBF65C065
S11320002B3031050CF445C0EAEDF1E0C081D181FB
S1132010C9016AE070E0D3D2605D688380819181F8
S1132020019691838083468157818417950721F413
S113203084819581918380834FB7F89482859385B9
S11320400196938782874FBFEAEDF1E00081118109
S1132050CAE0D0E0C901BE01B2D2BE01B0D2805DF7
S1132060D8018C938081918101969183808326810C
S113207037818217930721F484819581918380832A
S11320802FB7F894828593850196938782872FBF13
S11320901CC0EAEDF1E0A081B181205D2C93808128
S11320A091810196918380832681378182179307DA
S11320B021F484819581918380832FB7F89482855C
S11320C093850196938782872FBF75DADF91CF912D
S11320D01F910F910895EAEDF1E0A081B1818DE0A7
S11320E08C938081918101969183808326813781AD
S11320F08217930721F484819581918380832FB77C
S1132100F894828593850196938782872FBFEAEDA1
S1132110F1E0A081B1818AE08C9380819181019664
S113212091838083268137818217930721F48481E8
S11321309581918380832FB7F89482859385019646
S1132140938782872FBF37CA089581E4CFDB8091BC
S11321507E0290917F0263DDBEDF82E4C7DB809163
S11321607402909175025BDDB6DF83E4BFDB80917E
S113217082029091830253DDAEDF84E4B7DB809169
S11321807802909179024BDDA6DF85E4AFDB80E035
S113219090E045DDA0DF86E4A9DB80E090E03FDD50
S11321A09ADF87E4A3DB80E090E039DD94DF88E404
S11321B09DDB80E090E033DD8EDF89E497DB809166
S11321C08402909185022BDD86DF8AE48FDB809187
S11321D08E0290918F0223DD7EDF8BE487DB80E02B
S11321E090E01DDD78DF8CE481DB80E090E017DD9A
S11321F072DF8DE47BDB80918602909187020FDD94
S11322006ADF8EE473DB80918C0290918D0207DD8E
S113221062DF81E66BDB80917C0290917D02FFDCC2
S11322205ADF82E663DB8091760290917702F7DCD5
S113223052DF83E65BDB8091800290918102EFDCC8
S11322404ADF84E653DB80917A0290917B02E7DCDB
S113225042DF85E64BDB80E090E0E1DC3CDF86E6B4
S113226045DB80E090E0DBDC36DF87E63FDB80E0C7
S113227090E0D5DC30DF88E639DB80E090E0CFDC2D
S11322802ACF08958FB7F89420917002309171028B
S11322908FBF21153105D1F166E672E0E091680245
S11322A0F0916902A081FB0182819381019693835D
S11322B08283468157818417950721F4848195810F
S11322C0938382834FB7F89482859385019793878C
S11322D082874FBFAD3081F0E091720281E08E0FB2
S11322E080937202F0E0E158FB4FA0832150310942
S11322F02115310599F60CC0E0917202F0E0E15825
S1132300FB4F10821092720281E0089580E00895DC
S113231080E00895CF9381D8C0E00E94A7020E9474
S113232090010E94CD0111DF8FE39CE90197F1F741
S113233000C00000A7DF813059F4719A67E271E0B0
S11323408FE794E085D1892B29F0CC2331F302C0A7
S1132350CC2319F3CF91089595DF813009F036C06D
S11323606AE271E08FE794E073D1892B21F48FE264
S113237091E06EC9089564E371E08FE794E068D159
S1132380892BE1F482E7B2DA87E391E061D983E74C
S1132390ADDA8FE391E05CD984E7A8DA85E491E0D3
S11323A057D980E7A3DA8AE491E052D987E79EDA25
S11323B080E591E04DD910927202089565E571E0CF
S11323C08FE794E045D1892B09F4A4CF0895CF93E6
S11323D0DF93749880917302811120C0C0E9D2E028
S11323E05D9A0E94A702888199814E975CF45D985A
S11323F074982FEF85EA9EE0215080409040E1F7E9
S113240000C00000A9D8A8DF80E091E00E941E046B
S11324100E94F30980917302882311F3DF91CF9115
S1132420089553D80E94C60280917302811102C09C
S1132430CEDF01C0A2DB0E941C030E94180AF4CF65
S11324400895089580E091E00C94A603089580E037
S113245091E00C946E040895DF92EF92FF920F9333
S11324601F93CF93DF93FC01818D813041F0823043
S113247011F0D12C08C06894DD24D5F804C00F2EC7
S1132480F0E3DF2EF02D808D823019F48D2D8860DD
S1132490D82E828D873041F0883051F0863059F43F
S11324A0AD2DA260DA2E07C0BD2DB460DB2E03C0B3
S11324B08D2D8660D82E5B9AC9ECD0E0188208EC8A
S11324C010E0D8011C920F2EFAECEF2EF12CF02D17
S11324D0D7011C922489358946895789DA01C901B3
S11324E0B695A79597958795BC01CD0160587B4714
S11324F0814E9F4F77D0215031093093CD002093E6
S1132500CC00F701D08282E0D8018C9388E98883DB
S11325105B98DF91CF911F910F91FF90EF90DF9027
S113252008951F920F920FB60F9211240BB60F92BB
S11325302F933F934F938F939F93AF93BF93EF93B7
S1132540FF934091CE008EB3843049F58FB7F89451
S11325502091E4013091E5018FBF8091E2019091D7
S1132560E30128173907D9F0EAEDF1E0A081B18140
S11325704C93808191810196918380832681378158
S11325808217930721F484819581918380832FB7E7
S1132590F894828593850196938782872FBFFF9154
S11325A0EF91BF91AF919F918F914F913F912F9157
S11325B00F900BBE0F900FBE0F901F90189597FBB6
S11325C0072E16F4009406D077FD08D02DD007FC12
S11325D005D03EF4909581959F4F0895709561952F
S11325E07F4F0895A1E21A2EAA1BBB1BFD010DC04B
S11325F0AA1FBB1FEE1FFF1FA217B307E407F507AF
S113260020F0A21BB30BE40BF50B661F771F881F8A
S1132610991F1A9469F760957095809590959B0120
S1132620AC01BD01CF010895AA1BBB1B51E107C03A
S1132630AA1FBB1FA617B70710F0A61BB70B881F4E
S1132640991F5A95A9F780959095BC01CD010895DD
S1132650FB01DC018D91019080190110D9F3990BD4
S10926600895F894FFCF79
S1132666008310000001041000000182080000012C
S11326760000000000000000000000457865637556
S113268674612E2E2E78004D660070696E67007098
S11326966F6E67004D6E0053656D4E6F6D6500304D
S11326A6303030300031303131004D43332E30007C
S10D26B676322E33004D73313000EC
S9030000FC
